:020000040800F2
:10000000180A002091010008850B000891090008DA
:10001000810B000831050008D11C00080000000019
:10002000000000000000000000000000F90E0008C1
:100030002506000800000000A10D0008B910000806
:10004000AB010008AB010008AB010008AB010008E0
:10005000AB010008AB010008AB010008AB010008D0
:10006000AB010008AB010008AB010008AB010008C0
:10007000AB010008AB010008AB010008AB010008B0
:10008000AB010008AB010008AB010008AB010008A0
:10009000AB010008AB010008AB010008AB01000890
:1000A000AB0100085D130008AB010008AB010008BC
:1000B000A1130008AB010008B9130008AB01000848
:1000C000AB010008AB010008AB010008AB01000860
:1000D000AB010008051A00088D1A0008AB010008E2
:1000E000AB010008AB010008AB01000800F002F80A
:1000F00000F03FF80AA090E8000C82448344AAF183
:100100000107DA4501D100F034F8AFF2090EBAE880
:100110000F0013F0010F18BFFB1A43F0010318473B
:100120009C2F0000BC2F0000103A24BF78C878C173
:10013000FAD8520724BF30C830C144BF04680C60ED
:10014000704700000023002400250026103A28BF35
:1001500078C1FBD8520728BF30C148BF0B60704739
:10016000642900F07780002070471FB51FBD10B5CF
:1001700010BD00F0ADF91146FFF7F7FF02F000F8EF
:1001800000F0CBF903B4FFF7F2FF03BC01F05FFF0F
:100190000948804709480047FEE7FEE7FEE7FEE71B
:1001A000FEE7FEE7FEE7FEE7FEE7FEE70448054957
:1001B000054A064B70470000BD100008ED0000081E
:1001C00018040020180A0020180600201806002035
:1001D000704700000FB4044910B503AA029800F05C
:1001E00017F910BC5DF814FB2C0000202DE9F0413C
:1001F0000E460446002020622046E168884730B35E
:10020000252805D0D4E901219047206A401CF2E757
:10021000E168204600278847050018D0A5F1410075
:10022000192802D820354FF4006732462946204667
:100230002760FFF795FF40B1012804D0F61D26F096
:1002400007060836D8E7361DD6E72846DAE7206ADB
:10025000BDE8F0812DE9F0410646002410687529BB
:10026000314616A510D0AFF30080002802DA4042D4
:1002700013A507E031688A0701D512A502E04907F6
:1002800004D511A5012401E0AFF3008000210A226A
:1002900006F1240709E0B0FBF2FCB0FBF2F302FB2D
:1002A0001C00303078541846491C0028F3D12346EE
:1002B0002A463046BDE8F04100F051B80000000089
:1002C0002D0000002B00000020000000032A40F257
:1002D000308010F0030C00F0158011F8013BBCF1E8
:1002E000020F624498BF11F801CB00F8013B38BF00
:1002F00011F8013BA2F1040298BF00F801CB38BF0E
:1003000000F8013B11F0030300F09480083AC0F0BC
:10031000088051F8043B083A51F804CBA0E80810D3
:10032000F5E7121D5CBF51F8043B40F8043BAFF306
:100330000080D20724BF11F8013B11F801CB48BF60
:1003400011F8012B24BF00F8013B00F801CB48BF96
:1003500000F8012B704770477047704770472DE9D0
:10036000F0470D4699469246044600F1240801687C
:10037000880604D5E06921F01001216000E0012029
:10038000A84201DD471B00E00027A1697A1902EBB2
:100390000900081AA0612078C00602D42046AFF3F5
:1003A0000080002608E0D4E901211AF806009047F1
:1003B000206A401C761C20624E45F4DB2078C00683
:1003C0000AD52046AFF3008006E0D4E901213020B1
:1003D0009047206A401C2062381EA7F10107F4DC18
:1003E00007E0D4E9012118F805009047206A401C75
:1003F0002062281EA5F10105F3DC2046AFF3008042
:100400002078000602D50220BDE8F0870120FBE736
:10041000074B70B50D467B4400F043F80446284670
:1004200000F052F810B14FF0FF3070BD204670BDA3
:100430004B1D000010B5203AC0F00B80B1E81850F9
:10044000203AA0E81850B1E81850A0E81850BFF4BE
:10045000F5AF5FEA027C24BFB1E81850A0E818505D
:1004600044BF18C918C0BDE810405FEA827C24BFB1
:1004700051F8043B40F8043B08BF7047D20728BF3F
:1004800031F8023B48BF11F8012B28BF20F8023B8E
:1004900048BF00F8012B704701694A1C02610878C7
:1004A000704700B58FB0CDE90131002105910549B4
:1004B0007944CDE9031011466846FFF797FE0FB067
:1004C00000BD0000E5FFFFFF007B00F080007047EB
:1004D000754600F029F8AE4605006946534620F0FF
:1004E0000700854618B020B5FFF760FEBDE8204044
:1004F0004FF000064FF000074FF000084FF0000BE0
:1005000021F00701AC46ACE8C009ACE8C009ACE892
:10051000C009ACE8C0098D4670470446AFF30080BF
:100520002046FFF72FFE000000487047B40300206C
:1005300000BFFEE72DE9F84F07460C4690464FF006
:100540000009CA4600250026A346A01D00900425E8
:10055000A7F1500010283AD2DFE800F01608190F72
:100560001E2326292C2F3239393939354FF03409D9
:1005700003254FF0400A01262BE04FF03D090325EB
:100580004FF02E0A012624E04FF0300921E04FF011
:1005900037094FF003081CE04FF03A094FF0030809
:1005A00017E04FF0410914E04FF0450911E04FF01A
:1005B00049090EE04FF04D090BE04FF0510908E0FA
:1005C0004FF0550905E01448D0F8009001E0BDE86F
:1005D000F88F00BFB8F1030F01D1032500265DB1EC
:1005E0006A000E4901EB49005946FFF76FFE2946A4
:1005F00048460B4A126890475EB17200074901EB0A
:100600004A000099FFF762FE31465046044A1268DC
:10061000904700BFDBE7000080000020940200202C
:100620006C000020704710B50446204601F050FDD4
:1006300010BD000000B587B00121084600F0B2FBF4
:1006400001210C2000F0BEFB0320ADF800000420C7
:100650008DF803006946234800F0B8F84FF4406075
:10066000ADF8000004208DF8030069461E4800F034
:10067000ADF804A801F056F90020ADF810004FF6CF
:10068000FF70ADF814000020ADF81600ADF81200B0
:1006900004A94FF0804001F0F3F800231A4603212B
:1006A0004FF0804000F0C1FE01A800F047FF0A2093
:1006B000ADF80C0001A9400700F0EAFE012188070F
:1006C00000F092FE01221146900700F040FF002149
:1006D0004FF0804001F0A5F80121880700F08AFE64
:1006E00007B000BD00080140000C014000B587B014
:1006F0000121042000F056FB0121082000F062FBDC
:10070000C020ADF8000004208DF80300694622489F
:1007100000F05CF84FF44070ADF8000004208DF854
:10072000030069461C4800F051F804A801F0FAF8EB
:100730000020ADF810004FF6FF70ADF81400002057
:10074000ADF81600ADF8120004A9144801F098F8AD
:1007500000231A460321114800F067FE01A800F0AB
:10076000EDFE0A20ADF80C0001A90C4800F090FE47
:1007700001210A4800F038FE01221146074800F026
:10078000E6FE0021054801F04CF80121034800F085
:1007900031FE07B000BD0000000C01400008004021
:1007A00010B5044605480460002005490860054965
:1007B00008600548046001F0E9FC10BD4C00002011
:1007C0005000002054000020580000202DE9F04186
:1007D000024600250026002000230024002791F86F
:1007E00003C00CF00F0591F803C00CF0100CBCF125
:1007F000000F03D091F802C04CEA050591F800C043
:10080000BCF1000F31D0146800202BE04FF0010C38
:100810000CFA00F3B1F800C00CEA03069E4220D1A6
:1008200083004FF00F0C0CFA03F7BC4305FA03FCEE
:100830004CEA040491F803C0BCF1280F06D14FF034
:10084000010C0CFA00FCC2F814C00AE091F803C0D5
:10085000BCF1480F05D14FF0010C0CFA00FCC2F8B6
:1008600010C0401C0828D1D31460B1F800C0BCF1FE
:10087000FF0F34DD546800202EE000F1080C4FF02B
:10088000010808FA0CF3B1F800C00CEA03069E4216
:1008900021D183004FF00F0C0CFA03F7BC4305FA8B
:1008A00003FC4CEA040491F803C0BCF1280F05D105
:1008B00000F1080C08FA0CF8C2F8148091F803C093
:1008C000BCF1480F07D100F1080C4FF0010808FAFD
:1008D0000CF8C2F81080401C0828CED35460BDE844
:1008E000F0810246002093680B400BB1012000E02C
:1008F00000207047016170472DE9F04104460D4624
:1009000016461F464FF480410B48FFF7EAFF206070
:100910004FF400510848FFF7E4FF28604FF400410E
:100920000548FFF7DEFF30604FF480510348FFF7C2
:10093000D8FF3860BDE8F08100100140000C014094
:100940002DE9FE4F8246DFF838B0504602F0F6F847
:100950005946009002F03EF9019002F039F88046C5
:10096000084A094B01F09EFD06460022074B01F0A4
:10097000F1FC044601F0BCFC02900298BDE8FE8F39
:10098000529EED3E9A9999999999B93F0070A74066
:1009900000BFFEE710B54FF4165001F09BF950214F
:1009A000002001F007FA054801F01CFB044801F0A3
:1009B00017FA044801F0F2F910BD00006D0F0008AD
:1009C000FD0E0008270600081FB5012003900290C5
:1009D000019000906B4601AA02A903A8FFF78CFFC3
:1009E000029868B9019801280AD141F2941000F0E8
:1009F000DDFF01202D4908602DA0FFF7EBFB54E03F
:100A0000029801280CD1019850B941F2941000F0DD
:100A1000E3FF02202549086029A0FFF7DBFB44E043
:100A2000029860B9019850B94FF47A60FFF7B8FEA8
:100A300003201E49086026A0FFF7CCFB35E0039891
:100A4000012811D1029801280ED1019801280BD15B
:100A50000098012808D100F005FB04201349086024
:100A60001EA0FFF7B7FB20E010480068012804D162
:100A700041F2941000F09AFF17E00C480068022839
:100A800004D141F2941000F0A7FF0EE0074800687F
:100A9000032804D14FF47A60FFF782FE05E0034893
:100AA0000068042801D100F0DDFA1FBD48000020D5
:100AB000CEA2B5F7B3B5D7F3D7AA0D0A0000000050
:100AC000CEA2B5F7B3B5D3D2D7AA0D0A0000000065
:100AD000BCD3CBD9C7B0BDF80D0A0000CDA3D6B9A1
:100AE0000D0A000008B50121102000F06BF94FF449
:100AF0008040ADF8000048208DF8030003208DF8F9
:100B0000020069461C48FFF761FE0121102000F039
:100B100059F94FF40050ADF8000048208DF803005B
:100B200003208DF8020069461348FFF74FFE0121AC
:100B3000102000F047F94FF40040ADF800004820C5
:100B40008DF8030003208DF8020069460A48FFF77C
:100B50003DFE0121082000F035F94FF48050ADF83A
:100B6000000048208DF8030003208DF8020069463C
:100B70000248FFF72BFE08BD00100140000C0140A9
:100B800000BFFEE77047000070B5002100230F2270
:100B9000C47804B3154C246804F4E064C4F5E0643C
:100BA000210AC1F10403CA40447804FA03F18478AD
:100BB0001440214309010E4C0678A155047804F035
:100BC0001F050124AC4005786D11AD0005F1E0254D
:100BD000C5F8004109E0047804F01F050124AC4089
:100BE000044D0678761145F8264070BD0CED00E006
:100BF00000E400E080E100E02DE9F04704460D4606
:100C00001646E06820613146284602F0E1F8E060CF
:100C1000D4E9030102F0DCF88046A16801F0DAFFB4
:100C200007462168E06801F0D5FF81466168E06809
:100C300001F0D0FF8046616901F0F6FE6061D4E901
:100C4000050102F093F802D2A06960610BE0A0698F
:100C500080F000484046616902F088F803D2A0693C
:100C600080F0004060613946484601F0DDFE804674
:100C7000616901F0D9FEE061D4E9070102F076F87C
:100C800002D2206AE0610BE0206A80F00048404612
:100C9000E16902F06BF803D2206A80F00040E06165
:100CA000BDE8F08730B5DDE903450160426083604F
:100CB0008461056230BD0000F0B589B004460D4680
:100CC00016461F4601210C2000F07CF8012102206D
:100CD00000F068F818208DF82300C020ADF820003F
:100CE00002208DF8220008A92A48FFF76FFD18207E
:100CF0008DF823000320ADF8200002208DF822009B
:100D000008A92548FFF762FDADF81840ADF814506A
:100D10000020ADF81A00ADF8160005A91F4800F034
:100D2000AFFD6020ADF804000020ADF80A00ADF87A
:100D30000C000120ADF8060001A9184800F016FCCF
:100D400001A9164800F068FC01A9144800F0C4FC91
:100D500001A9124800F01AFD0121104800F056FBCD
:100D600008210E4800F04EFC08210C4800F0A6FCBB
:100D700008210A4800F000FD0821084800F044FD61
:100D80000121064800F024FB0121044800F032FB59
:100D900009B0F0BD00080140000C01400004004013
:100DA0007047000029B1064AD2690243044BDA6158
:100DB00004E0034AD2698243014BDA6170470000C4
:100DC0000010024029B1064A92690243044B9A611D
:100DD00004E0034A92698243014B9A617047000024
:100DE0000010024030B500210022002400232D4DC8
:100DF0006D6805F00C0121B1042905D0082923D123
:100E000005E0294D056022E0274D05601FE0254DD6
:100E10006D6805F47012234D6D6805F48034022569
:100E200005EB92421CB9214D554305600BE01D4D69
:100E30006D6805F400351DB11C4D5543056002E099
:100E4000194D5543056002E0174D056000BF00BF16
:100E5000144D6D6805F0F0010909154D6B5C0568CE
:100E6000DD4045600F4D6D6805F4E061090A104DE5
:100E70006B5C4568DD4085600A4D6D6805F4605126
:100E8000C90A0B4D6B5C4568DD40C560054D6D685A
:100E900005F44041890B074D6B5CC568B5FBF3F564
:100EA000056130BD0010024000127A0000093D00CB
:100EB00014000020240000200146022902D0042949
:100EC00010D108E04FF08042928C10B200224FF017
:100ED00080439A8408E0074A128810B20022054B2A
:100EE0001A8001E0002000BF00BF002800DA404265
:100EF00070470000240800407047000010B5002231
:100F00002EE0362806D039280BD03C2810D03F28B8
:100F10001CD114E0144B1B7843F00103124C2370D6
:100F20001BE0114B1B7843F002030F4C237014E0BD
:100F30000D4B1B7843F008030B4C23700DE00A4B5C
:100F40001B7843F00403084C237006E0064B1B7823
:100F500043F08003044C237000BF00BF401C521CB0
:100F60008A42CED310BD00003C00002070B504467C
:100F70000D462946204600F08DFE70BD10B500F0EC
:100F800001F810BD0CB500200190009033480068B6
:100F900040F480303149086000BF3048006800F4F8
:100FA000003000900198401C0190009818B90198F9
:100FB000B0F5A06FF1D12948006800F4003010B1FD
:100FC0000120009001E0002000900098012843D10A
:100FD0002348006840F01000214908600846006876
:100FE00020F0030008600846006840F00200086036
:100FF0001A484068194948600846406848600846F1
:10100000406840F4806048600846406820F47C10E6
:1010100048600846406840F4E810486008460068A8
:1010200040F08070086000BF0C48006800F000705D
:101030000028F9D00948406820F0030007494860BB
:101040000846406840F00200486000BF034840681E
:1010500000F00C000828F9D10CBD0000001002407F
:101060000020024010B500200549086005490860CD
:10107000054908600549086001F088F810BD0000C6
:101080004C00002050000020540000205800002098
:10109000042808D14FF0E021096941F004014FF024
:1010A000E022116107E04FF0E021096921F004011D
:1010B0004FF0E022116170477047000010B51348EF
:1010C000006840F001001149086008464068104976
:1010D00008400E494860084600680E4908400B4920
:1010E00008600846006820F48020086008464068D0
:1010F00020F4FE0048604FF41F008860FFF73EFFB9
:101100004FF000600449086010BD0000001002406C
:101110000000FFF8FFFFF6FE08ED00E0F0B50C461A
:10112000154600220021068C4FF6FE773E400684CD
:10113000028B018C4FF60C7632407E1C06EA0316B9
:101140002E433243104EB0420ED0104EB0420BD060
:10115000B0F1804F08D00E4EB04205D00D4EB042D7
:1011600002D00D4EB04206D14FF6FD76314044F02C
:101170000106314305E04FF6F576314044F00106B3
:10118000314302830184F0BD002C01400034014052
:101190000004004000080040000C0040F0B50C4680
:1011A0001546002200210026078C4FF6EF7C07EA47
:1011B0000C070784028B018C4FF6FF7707EA0416B1
:1011C00040F6FF473A404FF6FF7707EA03373A43C6
:1011D0004FF6FF7707EA05273A43114FB8420ED082
:1011E000104FB8420BD0B0F1804F08D00E4FB8422C
:1011F00005D00E4FB84202D00D4FB84206D14FF67F
:10120000DF77394046F01007394305E04FF65F7746
:10121000394044F01007394302830184F0BD0000D7
:10122000002C014000340140000400400008004050
:10123000000C0040F0B50C461546002200210026A7
:10124000078C4FF6FF6C07EA0C070784828B018C32
:101250004FF6FF7707EA04264FF60C773A404FF631
:10126000FF7707EA03172F433A43114FB8420ED0D6
:10127000104FB8420BD0B0F1804F08D00E4FB8429B
:1012800005D00E4FB84202D00D4FB84206D14FF6EE
:10129000FF57394046F48077394305E04FF2FF5756
:1012A000394044F48077394382830184F0BD0000E3
:1012B000002C0140003401400004004000080040C0
:1012C000000C0040F0B50C46154600220021002617
:1012D000078C4EF6FF7C07EA0C070784828B018C93
:1012E0004FF6FF7707EA043640F6FF473A404FF6DD
:1012F000FF7707EA05273A434FF6FF7707EA0337F8
:101300003A43114FB8420ED0104FB8420BD0B0F153
:10131000804F08D00E4FB84205D00E4FB84202D0D1
:101320000D4FB84206D14DF6FF77394046F480574D
:10133000394305E047F6FF57394044F480573943B5
:1013400082830184F0BD0000002C01400034014084
:101350000004004000080040000C004010B50121CE
:101360000C4800F083F898B10220FFF7A5FD044671
:10137000FFF7E6FA084908600420FFF79DFD0446E0
:10138000FFF7DEFA054908600121024800F02FF856
:1013900010BD0000002C0140340000203800002067
:1013A0004FF08040008A4FF08040008A20F001001A
:1013B0004FF0804108827047044800880348008845
:1013C00020F001000149088070470000100800402B
:1013D00021B1028842F08002028004E002884FF6C8
:1013E0007F731A4002807047CA4302827047CA4323
:1013F0000282704721B1028842F00102028004E0BB
:1014000002884FF6FE731A400280704731B1B0F87F
:10141000442042F40042A0F8442005E0B0F8442003
:10142000C2F30E02A0F844207047F0B50C461546F2
:101430001E460021002200230189028B038C4FF6F7
:10144000F877394021434FF6FC473A4040F2011704
:101450003A434FF6DD773B404FF6FF7707EA061732
:101460002F433B43018102830384F0BD30B5024624
:10147000002000230024158A05EA0103958905EA66
:10148000010413B10CB1012000E0002030BD0000C8
:1014900070B505460C46244885420ED02348854247
:1014A0000BD0B5F1804F08D02148854205D02148A6
:1014B000854202D02048854200D100E000BF20884C
:1014C00050B92389A28861882846FFF727FEE18862
:1014D000284600F0A8F925E0208804280AD12389AD
:1014E000A28861882846FFF759FEE188284600F067
:1014F000A3F917E0208808280AD12389A2886188E7
:101500002846FFF797FEE188284600F0A2F909E097
:101510002389A28861882846FFF7D4FEE1882846FF
:1015200000F0A0F970BD0000002C01400034014023
:101530000004004000080040000C00400021018031
:101540004180012181800021C180018170471AB151
:1015500083890B43838102E083898B4383817047B6
:1015600001894FF6F87211400181704770B500246F
:1015700000220023058C4FF6FE7635400584028C50
:101580008388048B4FF68F752C40B51E2C400D8838
:101590002C43751E2A400D892A434D882A43144D39
:1015A000A8420BD0134DA84208D0134DA84205D035
:1015B000124DA84202D0124DA84213D14FF6F77532
:1015C0002A404D892A434FF6FB752A408D882A43CD
:1015D0004FF6FF652B404FF6FF552B408D892B436F
:1015E000CD892B4383800483CD888586028470BD9A
:1015F000002C014000340140004001400044014003
:10160000004801400A460021018B4FF6F77319404C
:10161000114301837047000070B5002400220023AD
:10162000058C4FF6EF7635400584028C8388048B59
:1016300048F6FF752C404FF6FF452C400D884FF6BD
:10164000FF7606EA05252C434FF6DF752A400D8903
:1016500006EA05152A434D8806EA05152A43154D65
:10166000A84202D0144DA8421DD14FF67F752A40E2
:101670004D894FF6FF7606EA05152A434FF6BF75EA
:101680002A408D8806EA05152A434FF6FF352B4080
:101690004FF2FF752B408D8906EA85052B43CD89D6
:1016A00006EA85052B4383800483CD880587028461
:1016B00070BD0000002C0140003401400A460021AA
:1016C000018B4FF2FF7319404FF6FF7303EA0223B9
:1016D000194301837047000070B5002400220023E5
:1016E000058C4FF6FF6635400584028C8388848B19
:1016F0004FF68F752C404FF6FC752C400D882C430F
:101700004FF6FF552A400D894FF6FF7606EA05256C
:101710002A434D8806EA05252A43154DA84202D0E2
:10172000144DA8421DD14FF2FF752A404D894FF646
:10173000FF7606EA05252A434FF6FF352A408D88B5
:1017400006EA05252A434EF6FF752B404DF6FF7538
:101750002B408D8906EA05152B43CD8906EA051530
:101760002B4383808483CD888587028470BD0000ED
:10177000002C0140003401400A460021818B4FF6C5
:10178000F7731940114381837047000070B5002240
:1017900000230024058C4EF6FF7635400584038C2B
:1017A0008488828B48F6FF752A404FF6FF452A4011
:1017B0000D884FF6FF7606EA05252A434DF6FF759C
:1017C0002B400D8906EA05352B434D8806EA053581
:1017D0002B430B4DA84202D00A4DA84208D14BF62C
:1017E000FF752C408D894FF6FF7606EA85152C4350
:1017F00084808283CD88A0F84050038470BD0000AF
:10180000002C0140003401400A460021818B4FF238
:10181000FF7319404FF6FF7303EA022319438183D4
:10182000704781847047028B4FF6F3731A4002832E
:10183000028B0A4302837047028B4FF2FF331A4038
:101840000283028B4FF6FF7303EA01231A430283DC
:101850007047828B4FF6F3731A408283828B0A4360
:1018600082837047828B4FF2FF331A408283828BD0
:101870004FF6FF7303EA01231A4382837047000087
:10188000002202881D4B98420ED01D4B98420BD06F
:10189000B0F1804F08D01B4B984205D01A4B9842AC
:1018A00002D01A4B984204D14FF68F731A404B88DE
:1018B0001A43174B984207D0164B984204D04FF664
:1018C000FF431A40CB881A4302808B8883850B889C
:1018D00003850A4B98420BD0094B984208D00E4B17
:1018E000984205D00D4B984202D00D4B984201D141
:1018F0000B7A03860123838270470000002C01408D
:10190000003401400004004000080040000C00408A
:10191000001000400014004000400140004401401D
:10192000004801404FF6FF71818000210180C18095
:1019300041800172704700001FB50121C802FFF706
:1019400041FA1948FFF70CFE0020ADF80600ADF88B
:10195000020042F20F70ADF8040040F2CF20ADF863
:10196000000000208DF8080069460F48FFF788FF47
:1019700001210D48FFF738FD012211460A48FFF703
:10198000E6FD19208DF80C0002208DF80D000120D5
:101990008DF80E008DF80F0003A8FFF7F5F8012170
:1019A0000148FFF727FD1FBD002C014010B504467C
:1019B0000020054908600549086005490860054898
:1019C000046000F0E3FB10BD4C000020500000203C
:1019D000540000205800002010B50446054804605B
:1019E000002005490860054908600549086000F0C5
:1019F000CDFB10BD4C000020500000205400002002
:101A00005800002010B540F225511D4800F07CF828
:101A100010B31B4800F034F9C4B21A48008800F42F
:101A20000040C8B91748008800F4804060B10A2C13
:101A300003D000201349088020E01248008840F4B9
:101A400000401049088019E00D2C06D10D4800888F
:101A500040F480400B49088010E00A480088C0F339
:101A60000D0009490C5407480088401C05490880AE
:101A700008460088C72801DD0020088010BD00004E
:101A800000380140300000208400002010B540F2F2
:101A90002551084800F038F858B1064800F0F0F831
:101AA000C4B2204600F0A8F940F22551014800F0E8
:101AB00003F810BD0044004010B50022002340F69A
:101AC0006A14A14200D100BF0A1201249440A3B2BB
:101AD000DC43048010BD21B1828942F4005282812E
:101AE00004E082894DF6FF731A40828170470246F6
:101AF0000020B1F5007F00D100BF13880B400BB16F
:101B0000012000E00020704770B502460024002349
:101B10000025002040F66A16B14200D100BFC1F393
:101B2000421501F01F03012606FA03F3012D02D12D
:101B30009689334006E0022D02D1168A334001E037
:101B4000968A33400C12012606FA04F416883440B3
:101B500013B10CB1012000E0002070BDF0B50346C8
:101B6000002400260025002040F66A17B94200D163
:101B700000BF1846C1F3421401F01F06012707FAFF
:101B800006F5012C01D10C3004E0022C01D11030FB
:101B900000E014301AB107682F43076002E00768BD
:101BA000AF430760F0BD00002DE9F04786B0054661
:101BB0000E460024A24600BFA1460027B08900B10E
:101BC00000BF2F462C8A4CF6FF700440F088044377
:101BD0002C82AC894EF6F3100440B088318908435A
:101BE000718908430443AC81AC8A4FF6FF4004403E
:101BF000B0890443AC8201A8FFF7F4F81F4887427C
:101C000002D1DDF810A001E0DDF80CA0A88900F4F5
:101C1000004040B10AEBCA0000EB0A1031684900ED
:101C2000B0FBF1F807E00AEBCA0000EB0A103168DC
:101C30008900B0FBF1F86420B8FBF0F00401200942
:101C4000642101FB1089A88900F4004040B13220D2
:101C500000EBC900B0FBF1F000F00700044308E01E
:101C6000322000EB09106421B0FBF1F000F00F000E
:101C700004432C8106B0BDE8F08700000038014025
:101C800001468888C0F308007047C1F308028280CB
:101C90007047000070B504460D4600260CE000BFFA
:101CA00080210A48FFF723FF0028F9D014F8011B10
:101CB0000648FFF7EAFF761CAE42F0D300BF402192
:101CC0000248FFF714FF0028F9D070BD004400401F
:101CD00000BFFEE710B586B0044601210420FFF7DF
:101CE00071F801214804FFF75DF80220ADF81400F7
:101CF00010208DF8170003208DF8160005A925483F
:101D0000FEF764FD02212348FEF7F4FD0420ADF840
:101D1000140018208DF8170003208DF8160005A96F
:101D20001C48FEF753FD0820ADF8140004208DF880
:101D3000170005A91748FEF749FD01940020ADF8EA
:101D40000800ADF80A00ADF80C00ADF810000C204A
:101D5000ADF80E0001A91048FFF726FF012240F25E
:101D600025510D48FFF7FAFE01210B48FFF7B3FE9E
:101D700026208DF8000001208DF8010008208DF844
:101D8000020001208DF803006846FEF7FDFE06B054
:101D900010BD00000008014000440040014611B998
:101DA0006FF005007047024801600020FAE700006C
:101DB000700000200246062A02D96FF00500704725
:101DC00004480260044801700020044B186000BF02
:101DD000F5E700007C00002074000020780000205F
:101DE000014611B96FF005007047024801600020FC
:101DF000FAE700006C0000202DE9FC4180467348A2
:101E0000006808B9BDE8FC81714801680068401CA1
:101E10006F4A10606F4800F801806F48006807281B
:101E20005AD2DFE800F0055BC2C3045AC10000BF0C
:101E30006848007855280CD065480068401E644901
:101E4000086008466349491C0268481EFEF73EFACE
:101E5000D8E75F4800680B283ED30A215D4800F0B0
:101E6000E9F807465B48807AB8420CD058480068C9
:101E7000401E5749086008465649491C0268481EDA
:101E8000FEF724FABEE7534880785249C97840EA01
:101E90000120ADF800004F4800794E49497940EAE9
:101EA0000120ADF802004B4880794A49C97940EADF
:101EB0000120ADF804004748007A4649497A40EAD3
:101EC0000120ADF806004349487804226946FEF730
:101ED00031FB00203E4908606CE000BF3C480068D0
:101EE000022860D93B48407803280CD03848006865
:101EF000401E3749086008463649491C0268481E9A
:101F0000FEF7E4F97EE733488078401D30490968E0
:101F1000884200D976E72E480068401E2D49095CAA
:101F20002B480068801E2B4A105C41EA0025284897
:101F30000088801E81B2104600F060F80646B54267
:101F40000CD023480068401E2149086008462149FA
:101F5000491C0268481EFEF7B9F953E71D4880780E
:101F60004510002414E0042000EB44001949085CEB
:101F7000032101EB4401174A515C40EA012000B201
:101F8000164909682144164A22F81100601C84B2DF
:101F9000AC42E8DB2946114800680C4A12689047B9
:101FA00000200B49086005E000BF00BF0020084981
:101FB000086000BF00BF06480068B0F5807F02D10E
:101FC00000200349086000BF1CE700006C000020EF
:101FD00078000020940100207C0000208000002078
:101FE00094020020014611B96FF0050070470248C5
:101FF00001600020FAE700005C00002070B5034695
:102000000C46FF25FF26002200BF00BF09E0985CB8
:1020100080EA05010548405C80EA06050448465C04
:10202000521CA242F3DB46EA052070BDBA2E00081E
:10203000BA2F000810B502460B460020002103E02D
:10204000545C0444E0B2491C9942F9D310BD00BF6E
:10205000704710B5FFF732F800F018F84FF416503B
:1020600000F0F6F8002341F61F4219461046FEF72D
:1020700023FE00F053F8FEF7DDFAFEF737FBFFF71B
:102080005BFCFEF72FFDFEF785FC10BD10B56FF071
:102090000400FEF7FDFF0A4800680A49B0FBF1F0B2
:1020A000094908700846007800EB4001C1EBC010F8
:1020B0004FF6FF7101EAC0000449088010BD00001E
:1020C0000000002000127A00280000202A000020D2
:1020D0000146114A12884A434FF0E0235A61002218
:1020E0009A611A46126942F001021A6100BF4FF06C
:1020F000E022106900F001021AB100F48032002AD7
:10210000F5D04FF0E022126922F001024FF0E023F7
:102110001A6100229A6170472A0000200CB50A4813
:102120000A490B4B0B4ACDE900100B490B48FEF74F
:10213000B9FD05480549064B064ACDE90010064998
:102140000748FEF7AFFD0CBD0000FA4500401C46F5
:102150009A99193E8FC2F53D0000E03F4C010020E6
:102160007001002000BF054A128802F04002002AD8
:10217000F9D0C2B2014B1B1D1A80704700380140D4
:10218000FFF767FF01E0FEF71FFCFCE72DE9F047D2
:1021900022480468224805682248006800F0CEFC06
:1021A00006462148006800F0C9FC07461E48026840
:1021B0001C4801681DA0FEF70DF81948006800F0E2
:1021C000A1FC80461548006800F09CFC8146424610
:1021D000494618A0FDF7FEFF224631461748FEF794
:1021E0000BFD2A4639461648FEF706FD1349C86915
:1021F00000F088FC1349088013480088091D0880F6
:1022000012480088091D08800D49C86900F07AFC51
:102210000C490C310880BDE8F08700003400002034
:10222000380000204C0000205800002025642C2598
:10223000642C000025642C25640D0A004C0100204C
:1022400070010020340400405000002054000020A1
:1022500010B586B00446012144F20400FEF7B2FD39
:102260004FF40070ADF8140003208DF8160018200C
:102270008DF8170005A91C48FEF7A8FA4FF48060F6
:10228000ADF8140004208DF8170005A91648FEF7D4
:102290009DFA25208DF8000003208DF801008DF8AF
:1022A000020001208DF803006846FEF76DFC0194E2
:1022B0000020ADF80800ADF80A00ADF80C00ADF84C
:1022C00010000C20ADF80E0001A90848FFF76CFCC7
:1022D000012240F225510548FFF740FC0121034847
:1022E000FFF7F9FB06B010BD0008014000380140BF
:1022F00021F00042A2F16052B2F5801F01F00043CC
:1023000028BFD2F17F6C0BD95FEA001C43EAC202FE
:1023100042EB507018BF704728BF20F00100704793
:10232000B2F5801FBCBF184670474FEA410C1CF540
:10233000001F02D2084600F014BD70B500F00AFA82
:1023400000000089FFF7F6BF4FF00040A0F58000C5
:102350007047000010B591EA030F48BF83F00043B7
:1023600000F15482841A71EB030C05D2121943EB6D
:102370000C03001B61EB0C01DFF824E14FEA115460
:10238000A4EB135C1EEA430F18BF9EEA445F73D0B0
:1023900023EA0E03DCF1200E21EA045143F48013FA
:1023A00032D322FA0CFE10EB0E0023FA0CFE41EBA6
:1023B0000E01CCF1200E03FA0EFE10EB0E0051F1CF
:1023C0000001B1F5801FCCF1200E32D201EB045197
:1023D00012FA0EF2BDE8104058BF7047401C38BFDB
:1023E0005FEA420218BF7047002814BF20F00100C6
:1023F00041F100014FEA410313F5001F38BF704758
:10240000A1F1C04100F0F4B9012A43EB0302ACF1A1
:10241000200CDCF11F0E32BF4FF0000E23FA0CF33C
:1024200010EB030041EB0451B4EB115FD0D0A1EBF2
:10243000045101F5801149085FEA300001EB0451B5
:102440000ED350F1000038BF12FA0EFE08D1BDE8DD
:102450001040C9E7401C38BF5FEA4202CAD1C3E757
:10246000BDE810404FEA410313F5001F38BF704725
:10247000A1F1C04100F0BCB99EEA445F08D011EA66
:102480005E0FBDE8104004BF01F00041002070471E
:10249000BDE8104070B500F05DF900BF64FBBE3EC2
:1024A0000000E0FF2DE9C04130B4DFF8A0C23CEAF3
:1024B000111418BF3CEA131400F0EC8081EA030504
:1024C0001CEA111444EAD57418BF1CEA131500F075
:1024D000C780A4EB05044FF0004545EAC12145EA59
:1024E000C32341EA505143EA525304F17F749942A5
:1024F00004F500344FEAC0204FEAC22208BF9042E0
:1025000000F09C804FEA13650FF24016765D4FEAAB
:10251000134506FB05F7C7F1807706FB07F74FEA7F
:10252000D737A7FB03687642C8F58038A7FB06CEED
:1025300038BFA8F1010807FB08E64FF0000EA6FB24
:10254000028CE6FB03CEDCF1000CCEF1004E38BF6E
:10255000AEF1010EA6FB0C584FF000074FF000053E
:10256000E6FB0E87A1FB08C6A0FB07CE16EB0E0606
:1025700045F10005E1FB076515F1E04E7EBFA4F5CE
:1025800080345FEA46066D4116F1800745F100058B
:102590004FEA17274FEA066647EA0567A6F1DE46C7
:1025A000B6F1805F4FEA15251FD9384624F0010C9B
:1025B00005EBC471BCF1FE6F01EB0C1102D8F0BC4D
:1025C000BDE8008124425CBF01F5801E9EEAC47F05
:1025D00002D4F0BCBDE80081244238D4F0BCA1F1A3
:1025E000C041BDE8004100F003B94FEAD22242EAFF
:1025F00043524FEAD323A7FB02864FEAD02040EA9A
:10260000415007FB03661EEA0E0F4FEAD12105FB7E
:10261000026658BFA6EB0056B6EB00564FEA520EC4
:102620004EEAC37E18EB0E0E56EB530EBDD518EBDB
:1026300002085E417F1C55F10005B6E74FF4801596
:102640004FF000074FF000064FF00008ADE7F0BC78
:102650004FF0000001F1C04101F00041BDE80081F0
:1026600011EA0C1F0CEA131500D00CE013EA0C1F42
:1026700000F025804FF00000F0BC81EA030101F07A
:102680000041BDE80081F0BCBDE8004181EA0301E2
:1026900000F0AEB8F0BCBDE8004170B500F05AF8EB
:1026A000097EFC3E00F007B881EA03014FF000000C
:1026B00001F00041704781EA030100F099B8F0BCD5
:1026C000BDE800414FF0000021497047FFFDFBF9D4
:1026D000F7F5F4F2F0EEEDEBE9E8E6E4E3E1E0DE55
:1026E000DDDBDAD8D7D5D4D3D1D0CFCDCCCBCAC8C7
:1026F000C7C6C5C4C2C1C0BFBEBDBCBBBAB9B8B7EE
:10270000B6B5B4B3B2B1B0AFAEADACABAAA9A8A8E0
:10271000A7A6A5A4A3A3A2A1A09F9F9E9D9C9C9BAE
:102720009A99999897979695959493939291919059
:102730008F8F8E8E8D8C8C8B8B8A898988888787EA
:102740008685858484838382828181800000FF075F
:102750000000F87F0EF1020E2EF0030E5EF8046BFF
:10276000364205D4012A43EB030515F5001F12D8A4
:10277000012841EB010C1CF5001F0CD80ED14FEACB
:10278000D17C15F5001F0CEB4C0C0CF1020C08BFB2
:102790004CEBD37C04E04FF0080C01E04FEAD37C13
:1027A0000CEB4C0526FA05F606F00706B6F1040C0C
:1027B00006D20EEB860CBDE870404CF0010C604771
:1027C000DFE80CF0090B02024FF000414FF000006F
:1027D000A1F5002170BD19461046012851EB0104F6
:1027E00018BFD4F5001484BF002001F0004170BD73
:1027F0000808A0F500114FEA3101704710B591EAC1
:10280000030F48BF83F000433FF5ACAD841A71EB72
:10281000030C07D212198CF0004C43EB0C03001B85
:1028200061EB0C01DFF8A4E14FEA1154A4EB135C57
:102830001EEA430F18BF9EEA445F00F0B08023EA0F
:102840006E03524221EA0451C3EB6E0338BF5B1E94
:10285000DCF1200E25D322FA0CFE10EB0E0043FA19
:102860000CFE41EB0E01CCF1200E03FA0EFE10EB34
:102870000E0051F10001CCF1200E29D412FA0EF213
:1028800001EB0451BDE8104058BF7047401C1CBF0D
:10289000B2F1004F704700280CBF491C20F0010026
:1028A000704712EB020E43EB030218BF4FF0010E0C
:1028B0004EEA4202ACF1200CDCF11E0E54D943FA70
:1028C0000CFE10EB0E0051F1FF31CCF11E0ED5D5F0
:1028D0000EF1010E12FA0EFE404141EB010101EB37
:1028E000445C5FEA5C5C10D910EBDE7001EB0451D4
:1028F00038BFBEF1004FBDE8104018BF7047002838
:102900000CBF491C20F00100704730D24FEAD42C94
:1029100011F5001124F400641BD0B1FA81F20B3AD6
:10292000A41AA41ED2F12003914030FA03F31943F4
:10293000904001EBCC71002C01EB0451BDE810403C
:10294000A8BF704701F1C0414FF0000001F0004105
:102950007047B0FA80F310FA03F100D110BDE41A09
:10296000173C4805C90AE4E701EB045110BD4910C2
:1029700001EB0451BDE810404FEA300002E04FF097
:10298000000170474A0008BF0042F8D0B2F5001FAE
:1029900028BF704701F000414FF0000070479EEAE9
:1029A000445F07D011EA5E0FBDE8104004BF00216C
:1029B00000207047BDE8104070B5FFF7CBFE00BFA8
:1029C00040DFF63E83F00041104670470000E0FF14
:1029D00043004FEAD30C4FEA3C0C43401FBF400773
:1029E0000CF1605113F0FE4F70471CF0006F03D1E3
:1029F00000200CF0004170470CF0004343EA507097
:102A000010B540EACC0000F066F900BF000000926B
:102A10004FEA0001FFF7ECBE4FF000414FF000001D
:102A2000A1F500217047000090EA010F48BF81F036
:102A3000004100F1D481421A3CBF801A89184FEA44
:102A4000D0524FF07F4C1CEA410FA2EBD15318BF7C
:102A50009CEA026F00F03B804FF0004C4CEA0020F3
:102A60004CEA012121FA03FC10EB0C0C1ED202F1FE
:102A7000FF325FEA1C2040EBC25038BF70471CF0A9
:102A80007F0F4FEA400C18BFBCF17F4F38BF704733
:102A9000C3F12003994008BF20F00100BCF17F4F33
:102AA00038BF7047A0F1C04000F05BB94FEA3C006E
:102AB000000A40EBC25028BF1CF0FF0F4FEA400C49
:102AC000E6D018BFBCF17F4F38BF7047EAE79CEAF9
:102AD000026F05D010EA5C0F08BF00F0004070479D
:102AE00010B500F0F8F800BF64FBBE3E401058BFC0
:102AF000C0F14040491058BFC1F140418142EFF35D
:102B00000080704741000B0ED3F19E0208D950F4AB
:102B100000034FEA032323FA02F048BF4042704704
:102B200010B500F0D8F800BF49922480002070470B
:102B30006FF0004282EA20007047000010F0004170
:102B400048BF4042B0FA80F310FA03F2C3F19D038C
:102B50000BD051EAC35101EB1220530638BF704726
:102B600000F1010008BF20F00100704750EA010C9D
:102B700000F113801CF5000F58BFBCF5000F01D405
:102B80008842704707D710F5000F58BF11F5000FA6
:102B900015D488427047894270471CF5000F04D550
:102BA000BCF5000FF7D5814270474FF0807C1CEBDD
:102BB000400F38BF1CEB410F01D28142704710B566
:102BC00000F089F8922449004FF000504FF08051F6
:102BD000FFF78CBF4FF47F0C1CEAD0121EBF1CEA1B
:102BE000D11392EA0C0F93EA0C0F00F0478090EAA1
:102BF000010F48BF42F480724FF0004C4CEA0020B5
:102C00004CEA012102EB0302A0FB0113A2F5000232
:102C1000002918BF43F001035B0028BF4FEA3303CC
:102C200042EB22425FEA132C4CEBC2502EBFBCEBAE
:102C3000436FB2F57C0F70474FEA036CBCF1004F55
:102C400008BF20F00100B2F57C0F38BF70470BD5EC
:102C500082F0FF0212F5803FC8BF704700F1C0400C
:102C6000D8BF00F00040704700F5000C5FEA4C0C44
:102C700048BF7047B0F1C04000F073B890EA010F50
:102C80000CEAD11348BF42F48072624538BF6345F5
:102C900004D280EA010000F00040704710B500F057
:102CA0001AF800BF8900013E00F007B800F009B82B
:102CB0005FEA410C5FEA1C6C08D080EA010000F07A
:102CC00050B85FEA400C5FEA1C6CF6D14FF0004050
:102CD000A0F5800070470EF1020E2EF0030E5EF894
:102CE000044B244204D44FEA4102B2F17F4F11D881
:102CF0004FEA4003B3F17F4F0CD80ED14FEAD07C9E
:102D0000B2F17F4F0CEB4C0C0CF1020C08BF4CEBFA
:102D1000D17C04E04FF0080C01E04FEAD17C0CEBD1
:102D20004C0324FA03F404F00704B4F1040C06D2B3
:102D30000EEB840CBDE810404CF0010C6047DFE85E
:102D40000CF0070802024FF00040A0F5800010BD13
:102D50000846420018BFD2F1807288BF00F00040E0
:102D600010BDFF2141EAD050C005704751EA000C68
:102D700000F113801CF5000F58BFBCF5000F01D403
:102D80008142704707D711F5000F58BF10F5000FAB
:102D900015D481427047894270471CF5000F04D555
:102DA000BCF5000FF7D5884270474FF0807C1CEBD4
:102DB000410F38BF1CEB400F01D28842704780EAB8
:102DC000010081EA000180EA0100FFF7F8BE00007F
:102DD00090EA010F48BF81F000413FF52CAE421A46
:102DE00004D882F00042A0EB020011444FEAD05216
:102DF0004FF07F4C1CEA410FA2EBD15318BF9CEA65
:102E0000026F4AD04FF0004C4CEA00204CEA0121FE
:102E100021FA03FCB0EB0C0C0FD412F0FE0F36D0ED
:102E20005FEA4C001DD5001240EBC25038BF70471E
:102E30001CF03F0F18BF70470BE0A2F101025FEAE0
:102E40001C2040EBC25038BF70471CF07F0F18BFEA
:102E50007047C3F12003994014BF401E20F00100C9
:102E6000704780084FEA122308BF7047B0FA80FC11
:102E7000A2EB0C02CCF1280C60FA0CF093EA122FB2
:102E800004BF00EBC25070474FEAC3707047130A8B
:102E90005FEADC1008BF7047F6E79CEA026F04D0D7
:102EA00010EA5C0F08BF0020704710B5FFF713FF52
:102EB00040DFF63E81F00040704700C1814001C014
:102EC000804101C0804100C1814001C0804100C1FA
:102ED000814000C1814001C0804101C0804100C1EA
:102EE000814000C1814001C0804100C1814001C0DA
:102EF000804101C0804100C1814001C0804100C1CA
:102F0000814000C1814001C0804100C1814001C0B9
:102F1000804101C0804100C1814000C1814001C0A9
:102F2000804101C0804100C1814001C0804100C199
:102F3000814000C1814001C0804101C0804100C189
:102F4000814000C1814001C0804100C1814001C079
:102F5000804101C0804100C1814000C1814001C069
:102F6000804101C0804100C1814001C0804100C159
:102F7000814000C1814001C0804100C1814001C049
:102F8000804101C0804100C1814001C0804100C139
:102F9000814000C1814001C0804101C0804100C129
:102FA000814000C1814001C0804100C1814001C019
:102FB000804101C0804100C1814000C0C101C30304
:102FC00002C2C60607C705C5C404CC0C0DCD0FCF81
:102FD000CE0E0ACACB0BC90908C8D81819D91BDBF1
:102FE000DA1A1EDEDF1FDD1D1CDC14D4D515D71741
:102FF00016D6D21213D311D1D010F03031F133F3F1
:10300000F23236F6F737F53534F43CFCFD3DFF3F40
:103010003EFEFA3A3BFB39F9F83828E8E929EB2B70
:103020002AEAEE2E2FEF2DEDEC2CE42425E527E700
:10303000E62622E2E323E12120E0A06061A163A370
:10304000A26266A6A767A56564A46CACAD6DAF6F00
:103050006EAEAA6A6BAB69A9A86878B8B979BB7B70
:103060007ABABE7E7FBF7DBDBC7CB47475B577B7C0
:10307000B67672B2B373B17170B0509091519353F0
:10308000529296565797559594549C5C5D9D5F9FC0
:103090009E5E5A9A9B5B99595898884849894B8BF0
:1030A0008A4A4E8E8F4F8D4D4C8C44848545874780
:1030B000468682424383418180400000DC30000824
:1030C0000000002084000000280100086031000892
:1030D00084000020940900004401000800A24A0472
:1030E00000000000000000000102030406070809B8
:1030F000000000000102030401020304060708099E
:1031000002040608000000000000000000000000AB
:10311000000000000000000000FF000000000000B0
:10312000000000000400000000000000000000009B
:10313000000000000000000000000000000000008F
:10314000000000000000000000000000000000007F
:10315000FF00000000000000000000000000000070
:04000005080000ED02
:00000001FF
