:020000040800F2
:100000007007002091010008E10600083B06000887
:10001000DD06000845040008D715000800000000B0
:10002000000000000000000000000000950900082A
:1000300049040008000000003D080008A90A000863
:10004000AB010008AB010008AB010008AB010008E0
:10005000AB010008AB010008AB010008AB010008D0
:10006000AB010008AB010008AB010008AB010008C0
:10007000AB010008AB010008AB010008AB010008B0
:10008000AB010008AB010008AB010008AB010008A0
:10009000AB010008AB010008AB010008AB01000890
:1000A000AB010008B50D0008AB010008AB0100086A
:1000B000290E0008AB010008410E0008AB01000842
:1000C000AB010008AB010008AB010008AB01000860
:1000D000AB010008B5130008AB010008AB01000834
:1000E000AB010008AB010008AB01000800F002F80A
:1000F00000F03FF80AA090E8000C82448344AAF183
:100100000107DA4501D100F034F8AFF2090EBAE880
:100110000F0013F0010F18BFFB1A43F0010318473B
:100120004816000068160000103A24BF78C878C14D
:10013000FAD8520724BF30C830C144BF04680C60ED
:10014000704700000023002400250026103A28BF35
:1001500078C1FBD8520728BF30C148BF0B60704739
:10016000642900F07780002070471FB51FBD10B5CF
:1001700010BD00F037F91146FFF7F7FF01F07AFAEA
:1001800000F055F903B4FFF7F2FF03BC01F025FAC4
:100190000948804709480047FEE7FEE7FEE7FEE71B
:1001A000FEE7FEE7FEE7FEE7FEE7FEE70448054957
:1001B000054A064B70470000AD0A0008ED00000834
:1001C00070010020700700207003002070030020E1
:1001D000704700000FB4044910B503AA029800F05C
:1001E000D3F810BC5DF814FB340000202DE9F04179
:1001F0000E460446002020622046E168884730B35E
:10020000252805D0D4E901219047206A401CF2E757
:10021000E168204600278847050018D0A5F1410075
:10022000192802D820354FF4006732462946204667
:100230002760FFF795FF40B1012804D0F61D26F096
:1002400007060836D8E7361DD6E72846DAE7206ADB
:10025000BDE8F0812DE9F0410646002410687529BB
:10026000314616A510D0AFF30080002802DA4042D4
:1002700013A507E031688A0701D512A502E04907F6
:1002800004D511A5012401E0AFF3008000210A226A
:1002900006F1240709E0B0FBF2FCB0FBF2F302FB2D
:1002A0001C00303078541846491C0028F3D12346EE
:1002B0002A463046BDE8F04100F00CB800000000CE
:1002C0002D0000002B000000200000007047704748
:1002D000704770472DE9F0470D469946924604460F
:1002E00000F124080168880604D5E06921F01001B6
:1002F000216000E00120A84201DD471B00E000274B
:10030000A1697A1902EB0900081AA0612078C006D9
:1003100002D42046AFF30080002608E0D4E9012192
:100320001AF806009047206A401C761C20624E4551
:10033000F4DB2078C0060AD52046AFF3008006E043
:10034000D4E9012130209047206A401C2062381EE9
:10035000A7F10107F4DC07E0D4E9012118F8050052
:100360009047206A401C2062281EA5F10105F3DC9D
:100370002046AFF300802078000602D50220BDE8B9
:10038000F0870120FBE70000074B70B50D467B446A
:1003900000F011F80446284600F020F810B14FF0A4
:1003A000FF3070BD204670BDC712000001694A1CB5
:1003B00002610878704700B58FB0CDE901310021A6
:1003C000059105497944CDE9031011466846FFF7C8
:1003D0000DFF0FB000BD0000E5FFFFFF007B00F048
:1003E00080007047754600F029F8AE460500694662
:1003F000534620F00700854618B020B5FFF7D6FE1B
:10040000BDE820404FF000064FF000074FF0000815
:100410004FF0000B21F00701AC46ACE8C009ACE896
:10042000C009ACE8C009ACE8C0098D467047044675
:10043000AFF300802046FFF7A5FE0000004870479C
:100440000C01002000BFFEE77047000000B587B038
:100450000121084600F0F4F901210C2000F000FA17
:100460000320ADF8000004208DF8030069462348FE
:1004700000F054F84FF44060ADF8000004208DF80F
:10048000030069461E4800F049F804A800F088FF00
:100490000020ADF810004FF6FF70ADF814000020FA
:1004A000ADF81600ADF8120004A94FF0804000F03E
:1004B00025FF00231A4603214FF0804000F0F9FC8D
:1004C00001A800F07FFD0A20ADF80C0001A940074B
:1004D00000F022FD0121880700F0CAFC012211462C
:1004E000900700F078FD00214FF0804000F0D7FE2B
:1004F0000121880700F0C2FC07B000BD00080140E0
:10050000000C0140044A10800021121D1180121DB0
:100510001180121D10807047340400402DE9F04115
:10052000024600250026002000230024002791F821
:1005300003C00CF00F0591F803C00CF0100CBCF1D7
:10054000000F03D091F802C04CEA050591F800C0F5
:10055000BCF1000F31D0146800202BE04FF0010CEB
:100560000CFA00F3B1F800C00CEA03069E4220D159
:1005700083004FF00F0C0CFA03F7BC4305FA03FCA1
:100580004CEA040491F803C0BCF1280F06D14FF0E7
:10059000010C0CFA00FCC2F814C00AE091F803C088
:1005A000BCF1480F05D14FF0010C0CFA00FCC2F869
:1005B00010C0401C0828D1D31460B1F800C0BCF1B1
:1005C000FF0F34DD546800202EE000F1080C4FF0DE
:1005D000010808FA0CF3B1F800C00CEA03069E42C9
:1005E00021D183004FF00F0C0CFA03F7BC4305FA3E
:1005F00003FC4CEA040491F803C0BCF1280F05D1B8
:1006000000F1080C08FA0CF8C2F8148091F803C045
:10061000BCF1480F07D100F1080C4FF0010808FAAF
:100620000CF8C2F81080401C0828CED35460BDE8F6
:10063000F081416170470161704700BFFEE7000033
:1006400008B50121102000F00BF94FF48040ADF8FF
:10065000000048208DF8030003208DF80200694651
:100660001C48FFF75BFF0121102000F0F9F84FF460
:100670000050ADF8000048208DF8030003208DF8ED
:10068000020069461348FFF749FF0121102000F0DE
:10069000E7F84FF40040ADF8000048208DF8030063
:1006A00003208DF8020069460A48FFF737FF012151
:1006B000082000F0D5F84FF48050ADF80000482035
:1006C0008DF8030003208DF8020069460248FFF709
:1006D00025FF08BD00100140000C014000BFFEE7EF
:1006E0007047000070B5002100230F22C47804B3C6
:1006F000154C246804F4E064C4F5E064210AC1F1F7
:100700000403CA40447804FA03F184781440214376
:1007100009010E4C0678A155047804F01F05012448
:10072000AC4005786D11AD0005F1E025C5F800413C
:1007300009E0047804F01F050124AC40044D06785C
:10074000761145F8264070BD0CED00E000E400E0B5
:1007500080E100E0F0B589B004460D4616461F461C
:1007600001210C2000F07CF80121022000F068F843
:1007700018208DF82300C020ADF8200002208DF84D
:10078000220008A92A48FFF7C9FE18208DF8230087
:100790000320ADF8200002208DF8220008A925488A
:1007A000FFF7BCFEADF81840ADF814500020ADF8CE
:1007B0001A00ADF8160005A91F4800F09FFD602043
:1007C000ADF804000020ADF80A00ADF80C000120DF
:1007D000ADF8060001A9184800F006FC01A916486A
:1007E00000F058FC01A9144800F0B4FC01A912481B
:1007F00000F00AFD0121104800F04CFB08210E48D2
:1008000000F03EFC08210C4800F096FC08210A4844
:1008100000F0F0FC0821084800F034FD01210648F2
:1008200000F01AFB0121044800F028FB09B0F0BDDC
:1008300000080140000C0140000400407047000027
:1008400029B1064AD2690243044BDA6104E0034A43
:10085000D2698243014BDA61704700000010024008
:1008600029B1064A92690243044B9A6104E0034AA3
:1008700092698243014B9A61704700000010024068
:1008800030B500210022002400232D4D6D6805F0B5
:100890000C0121B1042905D0082923D105E0294DF7
:1008A000056022E0274D05601FE0254D6D6805F4C9
:1008B0007012234D6D6805F48034022505EB9242D9
:1008C0001CB9214D554305600BE01D4D6D6805F4C5
:1008D00000351DB11C4D5543056002E0194D5543CF
:1008E000056002E0174D056000BF00BF144D6D6844
:1008F00005F0F0010909154D6B5C0568DD404560A8
:100900000F4D6D6805F4E061090A104D6B5C456898
:10091000DD4085600A4D6D6805F46051C90A0B4DD4
:100920006B5C4568DD40C560054D6D6805F4404170
:10093000890B074D6B5CC568B5FBF3F5056130BDF0
:100940000010024000127A0000093D001C00002047
:100950002C0000200146022902D0042910D108E011
:100960004FF08042928C10B200224FF080439A8464
:1009700008E0074A128810B20022054B1A8001E0F5
:10098000002000BF00BF002800DA4042704700008E
:1009900024080040704710B500F002F810BD0000B8
:1009A0000CB50020019000903348006840F480307E
:1009B0003149086000BF3048006800F40030009002
:1009C0000198401C0190009818B90198B0F5A06FEB
:1009D000F1D12948006800F4003010B101200090E6
:1009E00001E0002000900098012843D123480068CE
:1009F00040F01000214908600846006820F003001C
:100A000008600846006840F0020008601A48406824
:100A1000194948600846406848600846406840F404
:100A2000806048600846406820F47C1048600846B2
:100A3000406840F4E81048600846006840F0807064
:100A4000086000BF0C48006800F000700028F9D072
:100A50000948406820F0030007494860084640689C
:100A600040F00200486000BF0348406800F00C00FE
:100A70000828F9D10CBD00000010024000200240FF
:100A8000042808D14FF0E021096941F004014FF03A
:100A9000E022116107E04FF0E021096921F0040133
:100AA0004FF0E022116170477047000010B5134805
:100AB000006840F00100114908600846406810498C
:100AC00008400E494860084600680E4908400B4936
:100AD00008600846006820F48020086008464068E6
:100AE00020F4FE0048604FF41F008860FFF753FFBA
:100AF0004FF000600449086010BD00000010024083
:100B00000000FFF8FFFFF6FE08ED00E0F0B50C4630
:100B1000154600220021068C4FF6FE773E400684E3
:100B2000028B018C4FF60C7632407E1C06EA0316CF
:100B30002E433243104EB0420ED0104EB0420BD076
:100B4000B0F1804F08D00E4EB04205D00D4EB042ED
:100B500002D00D4EB04206D14FF6FD76314044F042
:100B60000106314305E04FF6F576314044F00106C9
:100B7000314302830184F0BD002C01400034014068
:100B80000004004000080040000C0040F0B50C4696
:100B90001546002200210026078C4FF6EF7C07EA5D
:100BA0000C070784028B018C4FF6FF7707EA0416C7
:100BB00040F6FF473A404FF6FF7707EA03373A43DC
:100BC0004FF6FF7707EA05273A43114FB8420ED098
:100BD000104FB8420BD0B0F1804F08D00E4FB84242
:100BE00005D00E4FB84202D00D4FB84206D14FF695
:100BF000DF77394046F01007394305E04FF65F775D
:100C0000394044F01007394302830184F0BD0000ED
:100C1000002C014000340140000400400008004066
:100C2000000C0040F0B50C461546002200210026BD
:100C3000078C4FF6FF6C07EA0C070784828B018C48
:100C40004FF6FF7707EA04264FF60C773A404FF647
:100C5000FF7707EA03172F433A43114FB8420ED0EC
:100C6000104FB8420BD0B0F1804F08D00E4FB842B1
:100C700005D00E4FB84202D00D4FB84206D14FF604
:100C8000FF57394046F48077394305E04FF2FF576C
:100C9000394044F48077394382830184F0BD0000F9
:100CA000002C0140003401400004004000080040D6
:100CB000000C0040F0B50C4615460022002100262D
:100CC000078C4EF6FF7C07EA0C070784828B018CA9
:100CD0004FF6FF7707EA043640F6FF473A404FF6F3
:100CE000FF7707EA05273A434FF6FF7707EA03370E
:100CF0003A43114FB8420ED0104FB8420BD0B0F16A
:100D0000804F08D00E4FB84205D00E4FB84202D0E7
:100D10000D4FB84206D14DF6FF77394046F4805763
:100D2000394305E047F6FF57394044F480573943CB
:100D300082830184F0BD0000002C0140003401409A
:100D40000004004000080040000C00407FB504464D
:100D50000D460121C802FFF783FDADF80840681E6B
:100D600080B2ADF804000020ADF80A00ADF806002E
:100D70008DF80C0001A90E4800F0C0FA01221146BE
:100D80000B4800F028F919208DF8000000208DF89C
:100D9000010003208DF8020001208DF80300684651
:100DA000FFF7A0FC0121024800F068F87FBD0000B9
:100DB000002C014010B50121174800F09BF850B3FA
:100DC0000121154800F057F814480068401C1349E9
:100DD00008601348006800EB400101EBC00000F51B
:100DE000FA700A2190FBF1F00C490968884205DB92
:100DF0004FF400610B48FFF71EFC04E04FF4006164
:100E00000848FFF716FC05480068B0F5FA6F02D1F4
:100E100000200249086010BD002C01404000002065
:100E20003C000020000801404FF08040008A4FF055
:100E30008040008A20F001004FF080410882704716
:100E4000044800880348008820F001000149088018
:100E5000704700001008004021B1028842F0800273
:100E6000028004E002884FF67F731A4002807047C8
:100E7000CA4302827047CA430282704721B1028886
:100E800042F00102028004E002884FF6FE731A402D
:100E90000280704731B1B0F8442042F40042A0F81B
:100EA000442005E0B0F84420C2F30E02A0F844202C
:100EB0007047F0B50C4615461E460021002200235F
:100EC0000189028B038C4FF6F877394021434FF6A6
:100ED000FC473A4040F201173A434FF6DD773B407A
:100EE0004FF6FF7707EA06172F433B430181028342
:100EF0000384F0BD30B50246002000230024158A8B
:100F000005EA0103958905EA010413B10CB101203A
:100F100000E0002030BD000070B505460C462448B6
:100F200085420ED0234885420BD0B5F1804F08D0C2
:100F30002148854205D02148854202D0204885427B
:100F400000D100E000BF208850B92389A2886188C1
:100F50002846FFF7DBFDE188284600F0A2F925E0EE
:100F6000208804280AD12389A28861882846FFF7AF
:100F70000DFEE188284600F09DF917E0208808283A
:100F80000AD12389A28861882846FFF74BFEE188B1
:100F9000284600F09CF909E02389A2886188284648
:100FA000FFF788FEE188284600F09AF970BD00003E
:100FB000002C0140003401400004004000080040C3
:100FC000000C00400021018041800121818000212E
:100FD000C180018170471AB183890B43838102E08C
:100FE00083898B438381704770B5002400220023DE
:100FF000058C4FF6FE7635400584028C8388048B81
:101000004FF68F752C40B51E2C400D882C43751E55
:101010002A400D892A434D882A43144DA8420BD0FB
:10102000134DA84208D0134DA84205D0124DA84236
:1010300002D0124DA84213D14FF6F7752A404D89C0
:101040002A434FF6FB752A408D882A434FF6FF65E9
:101050002B404FF6FF552B408D892B43CD892B43D9
:1010600083800483CD888586028470BD002C014076
:10107000003401400040014000440140004801406C
:101080000A460021018B4FF6F77319401143018383
:101090007047000070B5002400220023058C4FF635
:1010A000EF7635400584028C8388048B48F6FF7503
:1010B0002C404FF6FF452C400D884FF6FF7606EA90
:1010C00005252C434FF6DF752A400D8906EA0515E4
:1010D0002A434D8806EA05152A43154DA84202D039
:1010E000144DA8421DD14FF67F752A404D894FF609
:1010F000FF7606EA05152A434FF6BF752A408D880C
:1011000006EA05152A434FF6FF352B404FF2FF75CF
:101110002B408D8906EA85052B43CD8906EA850596
:101120002B4383800483CD880587028470BD000033
:10113000002C0140003401400A460021018B4FF28F
:10114000FF7319404FF6FF7303EA0223194301832B
:101150007047000070B5002400220023058C4FF674
:10116000FF6635400584028C8388848B4FF68F752B
:101170002C404FF6FC752C400D882C434FF6FF5544
:101180002A400D894FF6FF7606EA05252A434D8849
:1011900006EA05252A43154DA84202D0144DA8425F
:1011A0001DD14FF2FF752A404D894FF6FF7606EAB2
:1011B00005252A434FF6FF352A408D8806EA052586
:1011C0002A434EF6FF752B404DF6FF752B408D8957
:1011D00006EA05152B43CD8906EA05152B438380C6
:1011E0008483CD888587028470BD0000002C014077
:1011F000003401400A460021818B4FF6F7731940F5
:10120000114381837047000070B500220023002441
:10121000058C4EF6FF7635400584038C8488828BDE
:1012200048F6FF752A404FF6FF452A400D884FF6D5
:10123000FF7606EA05252A434DF6FF752B400D89FA
:1012400006EA05352B434D8806EA05352B430B4D41
:10125000A84202D00A4DA84208D14BF6FF752C4097
:101260008D894FF6FF7606EA85152C4384808283AC
:10127000CD88A0F84050038470BD0000002C0140D0
:10128000003401400A460021818B4FF2FF73194060
:101290004FF6FF7303EA0223194381837047818469
:1012A0007047028B4FF6F3731A400283028B0A4396
:1012B00002837047028B4FF2FF331A400283028B86
:1012C0004FF6FF7303EA01231A4302837047828BB0
:1012D0004FF6F3731A408283828B0A4382837047EE
:1012E000828B4FF2FF331A408283828B4FF6FF735B
:1012F00003EA01231A438283704700000022028818
:101300001D4B98420ED01D4B98420BD0B0F1804F30
:1013100008D01B4B984205D01A4B984202D01A4B6A
:10132000984204D14FF68F731A404B881A43174BDB
:10133000984207D0164B984204D04FF6FF431A400C
:10134000CB881A4302808B8883850B8803850A4BE0
:1013500098420BD0094B984208D00E4B984205D0CA
:101360000D4B984202D00D4B984201D10B7A038667
:101370000123838270470000002C014000340140AB
:101380000004004000080040000C00400010004035
:10139000001400400040014000440140004801406A
:1013A0004FF6FF71818000210180C1804180017270
:1013B0007047000010B540F225511D4800F04AF872
:1013C00010B31B4800F002F9C4B21A48008800F4B8
:1013D0000040C8B91748008800F4804060B10A2C6A
:1013E00003D000201349088020E01248008840F410
:1013F00000401049088019E00D2C06D10D480088E6
:1014000040F480400B49088010E00A480088C0F38F
:101410000D0009490C5407480088401C0549088004
:1014200008460088C72801DD0020088010BD0000A4
:1014300000380140380000204400002021B182899A
:1014400042F40052828104E082894DF6FF731A4013
:101450008281704770B502460024002300250020D9
:1014600040F66A16B14200D100BFC1F3421501F047
:101470001F03012606FA03F3012D02D1968933409A
:1014800006E0022D02D1168A334001E0968A3340ED
:101490000C12012606FA04F41688344013B10CB17C
:1014A000012000E0002070BDF0B5034600240026B6
:1014B0000025002040F66A17B94200D100BF184647
:1014C000C1F3421401F01F06012707FA06F5012CAB
:1014D00001D10C3004E0022C01D1103000E01430B6
:1014E0001AB107682F43076002E00768AF4307603F
:1014F000F0BD00002DE9F04786B005460E460024F9
:10150000A24600BFA1460027B08900B100BF2F4608
:101510002C8A4CF6FF700440F08804432C82AC897E
:101520004EF6F3100440B0883189084371890843AE
:101530000443AC81AC8A4FF6FF400440B0890443B9
:10154000AC8201A8FFF79CF91F48874202D1DDF861
:1015500010A001E0DDF80CA0A88900F4004040B123
:101560000AEBCA0000EB0A1031684900B0FBF1F841
:1015700007E00AEBCA0000EB0A1031688900B0FBF3
:10158000F1F86420B8FBF0F004012009642101FBAC
:101590001089A88900F4004040B1322000EBC90056
:1015A000B0FBF1F000F00700044308E0322000EB4C
:1015B00009106421B0FBF1F000F00F0004432C810E
:1015C00006B0BDE8F0870000003801400146888879
:1015D000C0F30800704700BFFEE7014600BF704738
:1015E00010B5FFF763FA00F015F84FF4165000F04D
:1015F0006BF8002341F61F4219461046FFF7AAF880
:1016000048210920FFF7A2FBFEF720FFFFF718F89B
:1016100010BD000010B56FF00400FFF731FA0A4862
:1016200000680A49B0FBF1F00949087008460078E3
:1016300000EB4001C1EBC0104FF6FF7101EAC000A2
:101640000449088010BD00000800002000127A0044
:10165000300000203200002000BF054A128802F04E
:101660004002002AF9D0C2B2014B1B1D1A807047FC
:1016700000380140FFF7B4FF17E00220FFF76AF9D6
:101680000A4908600846016809A0FEF7A3FD042086
:10169000FFF760F9054908600846016807A0FEF7F2
:1016A00099FD41F66410FEF72DFFE6E700000020EB
:1016B0004C6566742025642020000000526967682C
:1016C000742025640D0A000010B586B0044601217F
:1016D00044F20400FFF7C4F84FF40070ADF81400B2
:1016E00003208DF8160018208DF8170005A91C4856
:1016F000FEF714FF4FF48060ADF8140004208DF85D
:10170000170005A91648FEF709FF25208DF80000EF
:1017100003208DF801008DF8020001208DF80300F0
:101720006846FEF7DFFF01940020ADF80800ADF831
:101730000A00ADF80C00ADF810000C20ADF80E005A
:1017400001A90848FFF7D6FE012240F225510548BD
:10175000FFF7AAFE01210348FFF770FE06B010BD97
:1017600000080140003801408817000800000020F0
:101770004400000028010008CC17000844000020A5
:101780002C070000440100080000000000000000D9
:1017900000A24A040000000000000000010203044F
:1017A0000607080900000000010203040102030407
:1017B00006070809020406080000000000000000F7
:0C17C0000000000000000000000000001D
:04000005080000ED02
:00000001FF
