:020000040800F2
:10000000C8090020A90100080118000829170008E4
:10001000FD1700084B130008092800080000000025
:10002000000000000000000000000000B51A0008F9
:1000300041140008000000005D190008491C000878
:10004000C3010008C3010008C3010008C301000880
:10005000C3010008C3010008C3010008C301000870
:10006000C3010008C3010008C3010008C301000860
:10007000C3010008C3010008C3010008C301000850
:10008000C3010008C3010008C3010008C301000840
:10009000C3010008C3010008C3010008C301000830
:1000A000C3010008ED1E0008C3010008C3010008D9
:1000B000311F0008C3010008491F0008C3010008E0
:1000C000C3010008C3010008C3010008C301000800
:1000D000C30100083D250008C5250008C30100082C
:1000E000C3010008C3010008C301000800F002F8C2
:1000F00000F04AF80AA090E8000C82448344AAF178
:100100000107DA4501D100F03FF8AFF2090EBAE875
:100110000F0013F0010F18BFFB1A43F0010318473B
:100120004439000064390000103A24BF78C878C10F
:10013000FAD8520724BF30C830C144BF04680C60ED
:10014000704700000023002400250026103A28BF35
:1001500078C1FBD8520728BF30C148BF0B60704739
:10016000662903F03383642900F080800020704703
:100170001FB500F0ABFB04000020002102F090FE50
:10018000E0601FBD10B510BD00F0B8FC1146FFF7D0
:10019000EFFF02F081FD00F0D6FC03B4FFF7F2FFA1
:1001A00003BC02F004FD00000948804709480047ED
:1001B000FEE7FEE7FEE7FEE7FEE7FEE7FEE7FEE717
:1001C000FEE7FEE704480549054A064B7047000074
:1001D0004D1C0008ED000008C8030020C8090020DD
:1001E000C8050020C8050020704700000FB404496E
:1001F00010B503AA029800F025FB10BC5DF814FBB3
:100200003C0000202DE9F0410E460446002020620B
:100210002046E168884730B3252805D0D4E901217C
:100220009047206A401CF2E7E16820460027884793
:10023000050018D0A5F14100192802D820354FF447
:1002400000673246294620462760FFF789FF40B104
:10025000012804D0F61D26F007060836D8E7361D1B
:10026000D6E72846DAE7206ABDE8F0812DE9F041BB
:100270000646002410687529314616A510D0AFF344
:100280000080002802DA404213A507E031688A079F
:1002900001D512A502E0490704D511A5012401E00A
:1002A000AFF3008000210A2206F1240709E0B0FB29
:1002B000F2FCB0FBF2F302FB1C003030785418461D
:1002C000491C0028F3D123462A463046BDE8F041B8
:1002D00000F051B8000000002D0000002B000000CD
:1002E00020000000032A40F2308010F0030C00F0E0
:1002F000158011F8013BBCF1020F624498BF11F860
:1003000001CB00F8013B38BF11F8013BA2F1040218
:1003100098BF00F801CB38BF00F8013B11F0030390
:1003200000F0A282083AC0F0088051F8043B083A75
:1003300051F804CBA0E80810F5E7121D5CBF51F896
:10034000043B40F8043BAFF30080D20724BF11F810
:10035000013B11F801CB48BF11F8012B24BF00F875
:10036000013B00F801CB48BF00F8012B70477047F4
:100370007047704770472DE9F0470D469946924601
:10038000044600F124080168880604D5E06921F0DC
:100390001001216000E00120A84201DD471B00E0C0
:1003A0000027A1697A1902EB0900081AA0612078D8
:1003B000C00602D42046AFF30080002608E0D4E94E
:1003C00001211AF806009047206A401C761C206222
:1003D0004E45F4DB2078C0060AD52046AFF30080F6
:1003E00006E0D4E9012130209047206A401C2062B9
:1003F000381EA7F10107F4DC07E0D4E9012118F861
:1004000005009047206A401C2062281EA5F10105C6
:10041000F3DC2046AFF300802078000602D50220EE
:10042000BDE8F0870120FBE770472DE9FF4F0C4640
:100430001E464FF0FF378BB0D2E90001DDF8608037
:100440000A908A46C1F30A5505B93D46002108467F
:100450004FF00000BAF1000F00F4400005DA00EBA5
:1004600080004FF4400101EA50004FEA9059B9F181
:10047000010F00DDB9460A9850EA4A000ED044F652
:100480001050A5F2FF3545432F14B8F1000F1ED0D0
:100490007542291E1EDDC9F100021CE0B8F1010FF2
:1004A0004FF0000001D0302103E0F24305E0215479
:1004B000401CB042FBDB30460022002121540B9946
:1004C000C1F80880C1E900200FB0BDE8F08FBD1B66
:1004D0006D1CDEE74A4600DA694206A800F098FA89
:1004E00006AB93E8070003AB83E8070050460A9980
:1004F00000F070FB8DE80700A0F500501F38009059
:100500000398002D09DD42F21F014A46084403A961
:100510000390684600F0CFFD08E0A0F500504A4681
:100520001F3803A90390684600F0D9FD8DE8070045
:100530000004000C03D04FF0FF30410800E01046EB
:10054000B8F1000F03D00022009215461EE0751E80
:1005500005D400F0BFF9303262556D1EF9D5B346AF
:100560000122084302D000227F1C04E020783028BA
:1005700001D100227F1E002A099786D01DE0112D8F
:1005800007DA00F0A7F9303262556D1C50EA01021B
:10059000F5D1084302D00098C8B10EE00021681ED2
:1005A00005E0235C625C63542254401E491C814276
:1005B000F7DBAB46A81B401E0990002004F80B0097
:1005C0000B98099AC0F80880C0E9002B7CE7112637
:1005D0004FF0000859E72DE9F04F88460446D21D38
:1005E00022F0070191B0D1E90001CDE90A0102F042
:1005F000A1FA02460B98C00F01D02D2007E0206819
:10060000810701D52B2002E0202101EAC000032A46
:10061000099001D0072A05DB03464146204600F039
:10062000B7F90BE12078800601D5E06900E00620EB
:10063000B8F1650F814606D0B8F1660F18D0B8F151
:10064000670F70D131E00020B9F1110F009001DB8C
:10065000112301E009F101030AAA01A90CA8FFF77F
:10066000E4FEDDE90C70002609F10105834647E050
:1006700001204B4600904FF000470AAA01A90CA8A0
:10068000FFF7D3FEDDE90DB00C995D46002610B9E9
:1006900009F101000D18B9EB050003D4C0F1FF36D4
:1006A00009F10105A5EB09002BE0B9F1010F01DA11
:1006B0004FF001090020B9F1110F0090484601DD0B
:1006C000112300E003460AAA01A90CA8FFF7ADFE1A
:1006D000DDE90C704D4600268346207800070AD4D9
:1006E000AB4500DA5D4601A8012D04DD411911F882
:1006F000011C302907D04F4502DA17F1040F04DA44
:10070000012082460FE06D1EEEE7002F02DCED1B9C
:100710003E4403E0781CA84200DD7D1CB81B00F1BC
:10072000010A4FF000472078000703D4AA4501DBF7
:100730004FF0FF3A0021B7F1004F0DF143088DF85B
:10074000431024D002202B23002F01DA7F422D23D7
:100750000A21021EA0F1010000DC5FB197FBF1FC51
:1007600097FBF1F201FB1C7C17460CF1300C08F8EA
:1007700001CDEEE7A8F1010003702188090501D53C
:10078000452100E06521A0F1010800F8011C09984D
:100790000FA9A1EB0807FF1D00B10120411901EBD2
:1007A000EA70A1693844081A401EA0612078C0068A
:1007B00002D42046AFF30080099828B1D4E9012182
:1007C0009047206A401C20622078C00622D520462F
:1007D000AFF300801EE0002E04DBB34502DD01A86C
:1007E000805D00E03020D4E901219047206A401C60
:1007F0002062761CAAF101005FEA000A0AD100F02B
:1008000065F8C0680168405CD4E901219047206A1E
:10081000401C2062281EA5F10105DCDC07E0D4E9BC
:10082000012118F8010B9047206A401C2062381EF5
:10083000A7F10107F3DC2046AFF30080032011B0DD
:1008400043E60000074B70B50D467B4400F08DF881
:100850000446284600F04AF910B14FF0FF3070BD51
:10086000204670BD2F24000010B5203AC0F00B8048
:10087000B1E81850203AA0E81850B1E81850A0E8A4
:100880001850BFF4F5AF5FEA027C24BFB1E81850FE
:10089000A0E8185044BF18C918C0BDE810405FEA6E
:1008A000827C24BF51F8043B40F8043B08BF7047EA
:1008B000D20728BF31F8023B48BF11F8012B28BFEF
:1008C00020F8023B48BF00F8012B704700487047F2
:1008D0008803002030B5B0F10A024FEA900E71F1A2
:1008E00000034EEA817EB0EB0E0061EB91014FEA0E
:1008F000101E4EEA017E10EB0E0041EB11114FEA83
:10090000102E4EEA016E10EB0E0041EB11214FEA62
:10091000104E4EEA014E10EB0E0041EB1141401813
:1009200041F100014FEAD00040EA41704FEAD101A5
:1009300010EB80054FEA810444EA907444EB010413
:100940006D1944EB0404521BA3414FF0000348BF50
:100950000A3200D530BD401C41F1000130BD00001D
:1009600001694A1C02610878704700B58FB0CDE973
:1009700001310021059105497944CDE90310114663
:100980006846FFF73FFC0FB000BD0000E5FFFFFF2A
:100990002DE9F0411F46044603260168072A01F4A9
:1009A000006004DB08B116A505E016A503E008B158
:1009B00015A500E015A521F010002060A069C01E5B
:1009C000A0610FB1401EA0612046AFF300804FB17F
:1009D000D4E9012138469047206A401C2062C01C9F
:1009E000206206E0206AFAE7D4E9012115F8010B3C
:1009F0009047761EF8D22046AFF30080BDE8F08124
:100A00004E414E006E616E00494E4600696E6600B2
:100A10002DE9F047814616468AB0334878440DC820
:100A20008DE80D0030487844801C03AC0DC884E884
:100A30000D0041F69B300844372190FBF1F290FB0A
:100A4000F1F5A5F1800501FB12041B3C02D56442BF
:100A5000012000E00020DFF890A080460027FA4443
:100A6000AAF1BE0A0DE0E00709D03246684607EB5E
:100A700047010AEB810100F032FB8DE807006410AA
:100A80007F1C002CEFD1184F7F44AC3F18E0E807E3
:100A900014D007EB04100DF1180A90E80E008AE854
:100AA0000E00C068F04201D198190890324606A99C
:100AB00003A800F014FB03AB83E807006D10641C6F
:100AC000002DE4D132466946B8F1000F03A802D0E8
:100AD00000F0F1FA01E000F002FBC9E90001C9F8F9
:100AE00008200AB0BDE8F0872C300000007B00F041
:100AF0008000704700487047680300207546FFF784
:100B0000F9FFAE4605006946534620F007008546CA
:100B100018B020B5FFF756FBBDE820404FF00006A7
:100B20004FF000074FF000084FF0000B21F00701D5
:100B3000AC46ACE8C009ACE8C009ACE8C009ACE818
:100B4000C0098D4670470446AFF300802046FFF78A
:100B500024FB00004FF0013C50F8042B51F8043BFB
:100B60009A4221D1A2EB0C03934313EACC1317D181
:100B700050F8042B51F8043B9A4215D1A2EB0C0318
:100B8000934313EACC130BD150F8042B51F8043BD8
:100B90009A4209D1A2EB0C03934313EACC13DBD0A6
:100BA0004FF00000704700BFD01A01BAB1FA81F1CE
:100BB00001F0180122FA01F0CB40C1F12001DBB2B3
:100BC000C0B2C01A2CFA01F3D11A914311EAC31131
:100BD000E6D170475FEA400C08BF91F0000F4FEA82
:100BE0008C234FEAC12243EA51514FEA1C5018BFEF
:100BF00000F5F0404FEA300018BF41F000415FEAD5
:100C00006C5C00F02980BCF1FF3F08BF40F08040E1
:100C10007047130C06BF12044FF0100C4FF0000C7D
:100C2000130E04BF12020CF1080C130F04BF1201C3
:100C30000CF1040C930F04BF92000CF1020CD30FC3
:100C400004BF52000CF1010C11464FF00002A0F15C
:100C50001F00A0EB0C00704711F0004F08BF704759
:100C600031F000413FF4D5AF0B0C06BF09044FF043
:100C7000100C4FF0000C0B0E04BF09020CF1080C15
:100C80000B0F04BF09010CF1040C8B0F04BF89008A
:100C90000CF1020CCB0F04BF49000CF1010CCCF19C
:100CA0002003A0EB0C0022FA03F302FA0CF241EA53
:100CB000030100F10100704720F07F4C80EA03003F
:100CC00023F07F47ACEB070303F57C5300F00040B3
:100CD00003F1FF032DE980494FEA154B09B44FEAB0
:100CE000144325EA0B4E24EA03480FF2042606EBD0
:100CF000132749083E785FEA320203FB0667C7F50F
:100D0000000707FB06F64FEA54374FEAD64606F1CE
:100D1000020607FB066CCCF1005C4FEA1C472CEA8C
:100D2000074C07FB06F40CFB06F504EB15464FEAEF
:100D3000961634BF00204FF000404FEAD13706FB33
:100D400007FC4FEA1C4C0CFB0BF7D21B03FB0CF708
:100D500061EB07010CFB0EF7B0EB074072EB17429B
:100D60000CFB08F734BFA2EB0742B2EB074261EB82
:100D700017414FEA0C444FEA910706FB07FC4FEA84
:100D80001C4C0CFB0BF7B0EBC74072EB573203FB6C
:100D90000CF734BFA2EBC742B2EBC74261EB57314D
:100DA0000CFB0EF7B0EBC70072EB57720CFB08F7A9
:100DB00034BFA2EBC702B2EBC70261EB5771039FCE
:100DC0004FEA816141EA921104EBCC044FEAD1373A
:100DD0004FEA826206FB07FC42EA90124FEA80600B
:100DE0004FEA1C4C0CFB0BF7D21B03FB0CF761EB1F
:100DF00007010CFB0EF7B0EB074072EB17420CFB40
:100E000008F734BFA2EB0742B2EB074261EB174190
:100E10004FEA8C554FEA910704EB9C2406FB07FC34
:100E20004FEA1C4C0CFB0BF7B0EBC74072EB573290
:100E300003FB0CF734BFA2EBC742B2EBC74261EB36
:100E400057310CFB0EF7B0EBC70072EB57720CFB7F
:100E500008F734BFA2EBC702B2EBC70261EB5771D0
:100E600015EB4C254FEA816141EA92114FEA82620B
:100E70004FEAD13742EA901206FB07FC44F1000426
:100E80004FEA80604FEA1C4C0CFB0BF7D21B03FBB4
:100E90000CF761EB07010CFB0EF7B0EB074072EBB0
:100EA00017420CFB08F734BFA2EB0742B2EB074234
:100EB00061EB174115EB1C154FEA813141EA924174
:100EC0004FEA823242EA90424FEA80304FEA0C7693
:100ED00044F1000448EA03434EEA0B484FF0000E89
:100EE000B2EB080C71EB030724BF624639464EEBA8
:100EF0000E0E4FF0000B0018524149414BEB0B0B0B
:100F0000B2EB080C71EB03077BF1000B24BF6246C8
:100F100039464EEB0E0E4FF0000B0018524149417E
:100F20004BEB0B0BB2EB080C71EB03077BF1000BE7
:100F300024BF624639464EEB0E0E51EA020718BF37
:100F400046F0010616EB0E7655F1000254F1000151
:100F500003D5BDE88901BDE80088BDE88901BDE889
:100F60000048B619524141EB0101A3F1010370475A
:100F700080807F7E7D7C7B7A7978777676757473D6
:100F8000727171706F6E6E6D6C6C6B6A6A69686895
:100F9000676666656464636362616160605F5F5E2B
:100FA0005E5D5D5C5C5B5B5A5A59595858575756A1
:100FB0005655555554545353525252515150505006
:100FC0004F4F4F4E4E4D4D4D4C4C4C4B4B4B4A4A58
:100FD0004A4949494848484747474746464645459C
:100FE00045444444444343434342424242414141D5
:100FF000002B26D4770021D01CB54FEA370703B465
:101000004FF010004FF010014FF000000FBCBDE892
:1010100010400BF1010BBBF1010F08BF5FEA17078E
:1010200022BF12F1010211F101014FF0004143F121
:10103000000300F0004043EA00007047F9D357086E
:10104000DAE746EA064613F1400F4FEA16461FDD7F
:1010500013F1200FDFBF16430A46002120335B4205
:10106000C8D0C3F1200746EA064602FA07F74FEA5E
:10107000164646EA0706C3F1200722FA03F201FAF0
:1010800007F721FA03F14FF0000342EA0702B1E744
:1010900046EA020646EA06464FEA164646EA0106D0
:1010A000BCBF46EA0646360C4FF000034FF0000284
:1010B0004FF000019EE72DE9C048934630B491E817
:1010C000380007C831EA400C48BF34EA430C03D566
:1010D000FFF7F2FDFFF78CFFF0BCBDE800882DE9BB
:1010E000C048934630B491E8380007C810F0804FEC
:1010F00008BF13F0804F03D100F005F8FFF778FF29
:10110000F0BCBDE8008820F07F4780EA030023F0B0
:101110007F4C07EB0C03A3F57C5300F00040A3F1D8
:10112000FE0392F0000F00F0B38095F0000F00F086
:1011300077802DE901494FEA11404FEA144621EA30
:10114000004800FB06FC24EA064708FB06F607FBFE
:1011500008F800FB07F718EB06484CEB164C4FEA73
:10116000124B18EB07484FEA15464CEB174022EAA2
:101170000B4E0BFB06FC25EA06470EFB06F607FBAB
:101180000EFE0BFB07F71EEB064E4CEB164C4FF01A
:1011900000061EEB074E4CEB174B18EB0B0840F10B
:1011A000000018EB0E0B58EB000840F100008F1AFE
:1011B0004FF000013CBFC943661B14BFB5EB040CE4
:1011C00000213CBFC943F61B4FEA17444EEA8E0E7E
:1011D00027EA04454FEA1C4704FB07622CEA074C48
:1011E00005FB07F70CFB05F604FB0CFC16EB0746AA
:1011F00042EB174216EB0C4642EB1C421BEB060679
:1012000058EB0202414146EA9E0601D5BDE801893C
:10121000B619524141EB0101A3F10103BDE8018977
:101220004FEA14454FEA114724EA054621EA074CE4
:1012300005FB07F406FB07F70CFB06F105FB0CFCAE
:1012400011EB074144EB17444FEA124711EB0C41F5
:1012500044EB1C4422EA074C05FB07F206FB07F7A8
:101260000CFB06F605FB0CFC16EB074642EB17429F
:1012700016EB0C4642EB1C456A1854F1000148BFBE
:101280007047B619524141EB0101A3F101037047C8
:1012900095F0000F37D04FEA11424FEA144721EA88
:1012A000024624EA074C02FB07F106FB07F70CFB9A
:1012B00006F402FB0CFC14EB074441EB17414FEA28
:1012C000154714EB0C4441EB1C4125EA074C02FB8B
:1012D00007F506FB07F70CFB06F602FB0CFC16EB0A
:1012E000074645EB174516EB0C4645EB1C42121919
:1012F00051F1000148BF7047B619524141EB01015D
:10130000A3F1010370474FEA14454FEA114724EA5D
:10131000054621EA074C05FB07F106FB07F70CFB26
:1013200006F24FF0000605FB0CFC12EB074241EB06
:10133000174112EB0C4251EB1C4148BF7047921809
:1013400041EB0101A3F10103704700BFFEE700007C
:101350002DE9F84F07460C4690464FF00009CA4663
:1013600000250026A346A01D00900425A7F15000EB
:1013700010283AD2DFE800F01608190F1E2326299C
:101380002C2F3239393939354FF0340903254FF0D4
:10139000400A01262BE04FF03D0903254FF02E0AAD
:1013A000012624E04FF0300921E04FF037094FF0DB
:1013B00003081CE04FF03A094FF0030817E04FF024
:1013C000410914E04FF0450911E04FF049090EE0E2
:1013D0004FF04D090BE04FF0510908E04FF055096F
:1013E00005E01448D0F8009001E0BDE8F88F00BF98
:1013F000B8F1030F01D1032500265DB16A000E4943
:1014000001EB49005946FEF76DFF294648460B4A55
:10141000126890475EB17200074901EB4A000099DB
:10142000FEF760FF31465046044A1268904700BFFD
:10143000DBE700007C00002048020020680000205C
:10144000704710B50446204601F0F2FB10BD0000C5
:1014500000B587B00121084600F082FA01210C2076
:1014600000F08EFA0320ADF8000004208DF8030090
:101470006946234800F0A2F84FF44060ADF8000040
:1014800004208DF8030069461E4800F097F804A870
:1014900001F010F80020ADF810004FF6FF70ADF825
:1014A00014000020ADF81600ADF8120004A94FF0AA
:1014B000804000F0ADFF00231A4603214FF080402A
:1014C00000F07BFD01A800F001FE0A20ADF80C0041
:1014D00001A9400700F0A4FD0121880700F04CFDA0
:1014E00001221146900700F0FAFD00214FF08040E4
:1014F00000F05FFF0121880700F044FD07B000BD48
:1015000000080140000C014000B587B00121042013
:1015100000F026FA0121082000F032FAC020ADF8D0
:10152000000004208DF803006946224800F046F8C8
:101530004FF44070ADF8000004208DF803006946B8
:101540001C4800F03BF804A800F0B4FF0020ADF800
:1015500010004FF6FF70ADF814000020ADF8160033
:10156000ADF8120004A9144800F052FF00231A46F7
:101570000321114800F021FD01A800F0A7FD0A2079
:10158000ADF80C0001A90C4800F04AFD01210A4801
:1015900000F0F2FC01221146074800F0A0FD0021F6
:1015A000054800F006FF0121034800F0EBFC07B0FE
:1015B00000BD0000000C0140000800402DE9F04192
:1015C000024600250026002000230024002791F871
:1015D00003C00CF00F0591F803C00CF0100CBCF127
:1015E000000F03D091F802C04CEA050591F800C045
:1015F000BCF1000F31D0146800202BE04FF0010C3B
:101600000CFA00F3B1F800C00CEA03069E4220D1A8
:1016100083004FF00F0C0CFA03F7BC4305FA03FCF0
:101620004CEA040491F803C0BCF1280F06D14FF036
:10163000010C0CFA00FCC2F814C00AE091F803C0D7
:10164000BCF1480F05D14FF0010C0CFA00FCC2F8B8
:1016500010C0401C0828D1D31460B1F800C0BCF100
:10166000FF0F34DD546800202EE000F1080C4FF02D
:10167000010808FA0CF3B1F800C00CEA03069E4218
:1016800021D183004FF00F0C0CFA03F7BC4305FA8D
:1016900003FC4CEA040491F803C0BCF1280F05D107
:1016A00000F1080C08FA0CF8C2F8148091F803C095
:1016B000BCF1480F07D100F1080C4FF0010808FAFF
:1016C0000CF8C2F81080401C0828CED35460BDE846
:1016D000F0810161704700002DE9FE4F8246DFF87E
:1016E00038B0504601F08EFF5946009001F0A2FF3D
:1016F000019001F05BFF8046084A094B01F0C0FCF5
:1017000006460022074B01F013FC044601F0DEFB05
:1017100002900298BDE8FE8F529EED3E9A999999EB
:101720009999B93F0070A74000BFFEE710B54FF48C
:10173000165001F06BF85021002001F0D7F8054851
:1017400001F0ECF9044801F0E7F8044801F0C2F8B0
:1017500010BD0000291B0008B91A00084314000836
:1017600008B50121102000F00BF94FF48040ADF8CE
:10177000000048208DF8030003208DF80200694620
:101780001C48FFF71BFF0121102000F0F9F84FF46F
:101790000050ADF8000048208DF8030003208DF8BC
:1017A000020069461348FFF709FF0121102000F0ED
:1017B000E7F84FF40040ADF8000048208DF8030032
:1017C00003208DF8020069460A48FFF7F7FE012161
:1017D000082000F0D5F84FF48050ADF80000482004
:1017E0008DF8030003208DF8020069460248FFF7D8
:1017F000E5FE08BD00100140000C014000BFFEE7FF
:101800007047000070B5002100230F22C47804B394
:10181000154C246804F4E064C4F5E064210AC1F1C5
:101820000403CA40447804FA03F184781440214345
:1018300009010E4C0678A155047804F01F05012417
:10184000AC4005786D11AD0005F1E025C5F800410B
:1018500009E0047804F01F050124AC40044D06782B
:10186000761145F8264070BD0CED00E000E400E084
:1018700080E100E0F0B589B004460D4616461F46EB
:1018800001210C2000F07CF80121022000F068F812
:1018900018208DF82300C020ADF8200002208DF81C
:1018A000220008A92A48FFF789FE18208DF8230096
:1018B0000320ADF8200002208DF8220008A9254859
:1018C000FFF77CFEADF81840ADF814500020ADF8DD
:1018D0001A00ADF8160005A91F4800F099FD602018
:1018E000ADF804000020ADF80A00ADF80C000120AE
:1018F000ADF8060001A9184800F000FC01A916483F
:1019000000F052FC01A9144800F0AEFC01A91248F5
:1019100000F004FD0121104800F040FB08210E48B2
:1019200000F038FC08210C4800F090FC08210A481F
:1019300000F0EAFC0821084800F02EFD01210648CD
:1019400000F00EFB0121044800F01CFB09B0F0BDC3
:1019500000080140000C01400004004070470000F6
:1019600029B1064AD2690243044BDA6104E0034A12
:10197000D2698243014BDA617047000000100240D7
:1019800029B1064A92690243044B9A6104E0034A72
:1019900092698243014B9A61704700000010024037
:1019A00030B500210022002400232D4D6D6805F084
:1019B0000C0121B1042905D0082923D105E0294DC6
:1019C000056022E0274D05601FE0254D6D6805F498
:1019D0007012234D6D6805F48034022505EB9242A8
:1019E0001CB9214D554305600BE01D4D6D6805F494
:1019F00000351DB11C4D5543056002E0194D55439E
:101A0000056002E0174D056000BF00BF144D6D6812
:101A100005F0F0010909154D6B5C0568DD40456076
:101A20000F4D6D6805F4E061090A104D6B5C456867
:101A3000DD4085600A4D6D6805F46051C90A0B4DA3
:101A40006B5C4568DD40C560054D6D6805F440413F
:101A5000890B074D6B5CC568B5FBF3F5056130BDBF
:101A60000010024000127A0000093D00240000200E
:101A7000340000200146022902D0042910D108E0D8
:101A80004FF08042928C10B200224FF080439A8433
:101A900008E0074A128810B20022054B1A8001E0C4
:101AA000002000BF00BF002800DA4042704700005D
:101AB000240800407047000010B500222EE03628B0
:101AC00006D039280BD03C2810D03F281CD114E078
:101AD000144B1B7843F00103124C23701BE0114B95
:101AE0001B7843F002030F4C237014E00D4B1B785E
:101AF00043F008030B4C23700DE00A4B1B7843F0B6
:101B00000403084C237006E0064B1B7843F0800367
:101B1000044C237000BF00BF401C521C8A42CED32D
:101B200010BD00004C00002070B504460D4629464B
:101B3000204600F04BFE70BD10B500F001F810BD5E
:101B40000CB50020019000903348006840F48030CC
:101B50003149086000BF3048006800F40030009050
:101B60000198401C0190009818B90198B0F5A06F39
:101B7000F1D12948006800F4003010B10120009034
:101B800001E0002000900098012843D1234800681C
:101B900040F01000214908600846006820F003006A
:101BA00008600846006840F0020008601A48406873
:101BB000194948600846406848600846406840F453
:101BC000806048600846406820F47C104860084601
:101BD000406840F4E81048600846006840F08070B3
:101BE000086000BF0C48006800F000700028F9D0C1
:101BF0000948406820F003000749486008464068EB
:101C000040F00200486000BF0348406800F00C004C
:101C10000828F9D10CBD000000100240002002404D
:101C2000042808D14FF0E021096941F004014FF088
:101C3000E022116107E04FF0E021096921F0040181
:101C40004FF0E022116170477047000010B5134853
:101C5000006840F0010011490860084640681049DA
:101C600008400E494860084600680E4908400B4984
:101C700008600846006820F4802008600846406834
:101C800020F4FE0048604FF41F008860FFF754FF07
:101C90004FF000600449086010BD000000100240D1
:101CA0000000FFF8FFFFF6FE08ED00E0F0B50C467F
:101CB000154600220021068C4FF6FE773E40068432
:101CC000028B018C4FF60C7632407E1C06EA03161E
:101CD0002E433243104EB0420ED0104EB0420BD0C5
:101CE000B0F1804F08D00E4EB04205D00D4EB0423C
:101CF00002D00D4EB04206D14FF6FD76314044F091
:101D00000106314305E04FF6F576314044F0010617
:101D1000314302830184F0BD002C014000340140B6
:101D20000004004000080040000C0040F0B50C46E4
:101D30001546002200210026078C4FF6EF7C07EAAB
:101D40000C070784028B018C4FF6FF7707EA041615
:101D500040F6FF473A404FF6FF7707EA03373A432A
:101D60004FF6FF7707EA05273A43114FB8420ED0E6
:101D7000104FB8420BD0B0F1804F08D00E4FB84290
:101D800005D00E4FB84202D00D4FB84206D14FF6E3
:101D9000DF77394046F01007394305E04FF65F77AB
:101DA000394044F01007394302830184F0BD00003C
:101DB000002C0140003401400004004000080040B5
:101DC000000C0040F0B50C4615460022002100260C
:101DD000078C4FF6FF6C07EA0C070784828B018C97
:101DE0004FF6FF7707EA04264FF60C773A404FF696
:101DF000FF7707EA03172F433A43114FB8420ED03B
:101E0000104FB8420BD0B0F1804F08D00E4FB842FF
:101E100005D00E4FB84202D00D4FB84206D14FF652
:101E2000FF57394046F48077394305E04FF2FF57BA
:101E3000394044F48077394382830184F0BD000047
:101E4000002C014000340140000400400008004024
:101E5000000C0040F0B50C4615460022002100267B
:101E6000078C4EF6FF7C07EA0C070784828B018CF7
:101E70004FF6FF7707EA043640F6FF473A404FF641
:101E8000FF7707EA05273A434FF6FF7707EA03375C
:101E90003A43114FB8420ED0104FB8420BD0B0F1B8
:101EA000804F08D00E4FB84205D00E4FB84202D036
:101EB0000D4FB84206D14DF6FF77394046F48057B2
:101EC000394305E047F6FF57394044F4805739431A
:101ED00082830184F0BD0000002C014000340140E9
:101EE0000004004000080040000C004010B5012133
:101EF0000C4800F083F898B10220FFF7BBFD0446C0
:101F0000FFF7EAFB084908600420FFF7B3FD044629
:101F1000FFF7E2FB054908600121024800F02FF8B5
:101F200010BD0000002C01404400002048000020AB
:101F30004FF08040008A4FF08040008A20F001007E
:101F40004FF08041088270470448008803480088A9
:101F500020F001000149088070470000100800408F
:101F600021B1028842F08002028004E002884FF62C
:101F70007F731A4002807047CA4302827047CA4387
:101F80000282704721B1028842F00102028004E01F
:101F900002884FF6FE731A400280704731B1B0F8E4
:101FA000442042F40042A0F8442005E0B0F8442068
:101FB000C2F30E02A0F844207047F0B50C46154657
:101FC0001E460021002200230189028B038C4FF65C
:101FD000F877394021434FF6FC473A4040F2011769
:101FE0003A434FF6DD773B404FF6FF7707EA061797
:101FF0002F433B43018102830384F0BD30B5024689
:10200000002000230024158A05EA0103958905EACA
:10201000010413B10CB1012000E0002030BD00002C
:1020200070B505460C46244885420ED023488542AB
:102030000BD0B5F1804F08D02148854205D021480A
:10204000854202D02048854200D100E000BF2088B0
:1020500050B92389A28861882846FFF727FEE188C6
:10206000284600F0A8F925E0208804280AD1238911
:10207000A28861882846FFF759FEE188284600F0CB
:10208000A3F917E0208808280AD12389A28861884B
:102090002846FFF797FEE188284600F0A2F909E0FC
:1020A0002389A28861882846FFF7D4FEE188284664
:1020B00000F0A0F970BD0000002C01400034014088
:1020C0000004004000080040000C00400021018096
:1020D0004180012181800021C180018170471AB1B6
:1020E00083890B43838102E083898B43838170471B
:1020F00001894FF6F87211400181704770B50024D4
:1021000000220023058C4FF6FE7635400584028CB4
:102110008388048B4FF68F752C40B51E2C400D889C
:102120002C43751E2A400D892A434D882A43144D9D
:10213000A8420BD0134DA84208D0134DA84205D099
:10214000124DA84202D0124DA84213D14FF6F77596
:102150002A404D892A434FF6FB752A408D882A4331
:102160004FF6FF652B404FF6FF552B408D892B43D3
:10217000CD892B4383800483CD888586028470BDFE
:10218000002C014000340140004001400044014067
:10219000004801400A460021018B4FF6F7731940B1
:1021A000114301837047000070B500240022002312
:1021B000058C4FF6EF7635400584028C8388048BBE
:1021C00048F6FF752C404FF6FF452C400D884FF622
:1021D000FF7606EA05252C434FF6DF752A400D8968
:1021E00006EA05152A434D8806EA05152A43154DCA
:1021F000A84202D0144DA8421DD14FF67F752A4047
:102200004D894FF6FF7606EA05152A434FF6BF754E
:102210002A408D8806EA05152A434FF6FF352B40E4
:102220004FF2FF752B408D8906EA85052B43CD893A
:1022300006EA85052B4383800483CD8805870284C5
:1022400070BD0000002C0140003401400A4600210E
:10225000018B4FF2FF7319404FF6FF7303EA02231D
:10226000194301837047000070B500240022002349
:10227000058C4FF6FF6635400584028C8388848B7D
:102280004FF68F752C404FF6FC752C400D882C4373
:102290004FF6FF552A400D894FF6FF7606EA0525D1
:1022A0002A434D8806EA05252A43154DA84202D047
:1022B000144DA8421DD14FF2FF752A404D894FF6AB
:1022C000FF7606EA05252A434FF6FF352A408D881A
:1022D00006EA05252A434EF6FF752B404DF6FF759D
:1022E0002B408D8906EA05152B43CD8906EA051595
:1022F0002B4383808483CD888587028470BD000052
:10230000002C0140003401400A460021818B4FF629
:10231000F7731940114381837047000070B50022A4
:1023200000230024058C4EF6FF7635400584038C8F
:102330008488828B48F6FF752A404FF6FF452A4075
:102340000D884FF6FF7606EA05252A434DF6FF7500
:102350002B400D8906EA05352B434D8806EA0535E5
:102360002B430B4DA84202D00A4DA84208D14BF690
:10237000FF752C408D894FF6FF7606EA85152C43B4
:1023800084808283CD88A0F84050038470BD000013
:10239000002C0140003401400A460021818B4FF29D
:1023A000FF7319404FF6FF7303EA02231943818339
:1023B000704781847047028B4FF6F3731A40028393
:1023C000028B0A4302837047028B4FF2FF331A409D
:1023D0000283028B4FF6FF7303EA01231A43028341
:1023E0007047828B4FF6F3731A408283828B0A43C5
:1023F00082837047828B4FF2FF331A408283828B35
:102400004FF6FF7303EA01231A43828370470000EB
:10241000002202881D4B98420ED01D4B98420BD0D3
:10242000B0F1804F08D01B4B984205D01A4B984210
:1024300002D01A4B984204D14FF68F731A404B8842
:102440001A43174B984207D0164B984204D04FF6C8
:10245000FF431A40CB881A4302808B8883850B8800
:1024600003850A4B98420BD0094B984208D00E4B7B
:10247000984205D00D4B984202D00D4B984201D1A5
:102480000B7A03860123838270470000002C0140F1
:10249000003401400004004000080040000C0040EF
:1024A0000010004000140040004001400044014082
:1024B000004801404FF6FF71818000210180C180FA
:1024C00041800172704700001FB50121C802FFF76B
:1024D00057FA1948FFF70CFE0020ADF80600ADF8DA
:1024E000020042F20F70ADF8040040F2CF20ADF8C8
:1024F000000000208DF8080069460F48FFF788FFAC
:1025000001210D48FFF738FD012211460A48FFF767
:10251000E6FD19208DF80C0002208DF80D00012039
:102520008DF80E008DF80F0003A8FFF76BF901215D
:102530000148FFF727FD1FBD002C014010B540F2F8
:1025400025511D4800F07CF810B31B4800F034F909
:10255000C4B21A48008800F40040C8B9174800887F
:1025600000F4804060B10A2C03D000201349088099
:1025700020E01248008840F400401049088019E02B
:102580000D2C06D10D48008840F480400B4908808E
:1025900010E00A480088C0F30D0009490C540748B0
:1025A0000088401C0549088008460088C72801DDCE
:1025B0000020088010BD00000038014040000020CD
:1025C0008000002010B540F22551084800F038F88E
:1025D00058B1064800F0F0F8C4B2204600F0A8F95F
:1025E00040F22551014800F003F810BD00440040BE
:1025F00010B50022002340F66A14A14200D100BFAA
:102600000A1201249440A3B2DC43048010BD21B11E
:10261000828942F40052828104E082894DF6FF7380
:102620001A408281704702460020B1F5007F00D138
:1026300000BF13880B400BB1012000E00020704761
:1026400070B50246002400230025002040F66A16DB
:10265000B14200D100BFC1F3421501F01F030126B2
:1026600006FA03F3012D02D19689334006E0022DCC
:1026700002D1168A334001E0968A33400C120126BB
:1026800006FA04F41688344013B10CB1012000E0BE
:10269000002070BDF0B50346002400260025002070
:1026A00040F66A17B94200D100BF1846C1F3421480
:1026B00001F01F06012707FA06F5012C01D10C30A5
:1026C00004E0022C01D1103000E014301AB1076888
:1026D0002F43076002E00768AF430760F0BD0000CA
:1026E0002DE9F04786B005460E460024A24600BFFD
:1026F000A1460027B08900B100BF2F462C8A4CF6B6
:10270000FF700440F08804432C82AC894EF6F3102D
:102710000440B08831890843718908430443AC817F
:10272000AC8A4FF6FF400440B0890443AC8201A854
:10273000FFF736F91F48874202D1DDF810A001E00B
:10274000DDF80CA0A88900F4004040B10AEBCA00F3
:1027500000EB0A1031684900B0FBF1F807E00AEB22
:10276000CA0000EB0A1031688900B0FBF1F8642060
:10277000B8FBF0F004012009642101FB1089A8894D
:1027800000F4004040B1322000EBC900B0FBF1F092
:1027900000F00700044308E0322000EB0910642138
:1027A000B0FBF1F000F00F0004432C8106B0BDE84F
:1027B000F08700000038014001468888C0F3080017
:1027C0007047C1F3080282807047000070B504466C
:1027D0000D4600260CE000BF80210A48FFF723FFCA
:1027E0000028F9D014F8011B0648FFF7EAFF761C11
:1027F000AE42F0D300BF40210248FFF714FF00288B
:10280000F9D070BD0044004000BFFEE710B586B0AF
:10281000044601210420FFF7B3F801214804FFF723
:102820009FF80220ADF8140010208DF81700032047
:102830008DF8160005A92548FEF7C0FE02212348A1
:10284000FEF747FF0420ADF8140018208DF817009C
:1028500003208DF8160005A91C48FEF7AFFE0820DE
:10286000ADF8140004208DF8170005A91748FEF7ED
:10287000A5FE01940020ADF80800ADF80A00ADF8FF
:102880000C00ADF810000C20ADF80E0001A91048A6
:10289000FFF726FF012240F225510D48FFF7FAFE0F
:1028A00001210B48FFF7B3FE26208DF80000012020
:1028B0008DF8010008208DF8020001208DF803003A
:1028C0006846FEF79FFF06B010BD000000080140FB
:1028D00000440040014611B96FF0050070470248FE
:1028E00001600020FAE700006C0000200246062A82
:1028F00002D96FF005007047044802600448017077
:102900000020044B186000BFF5E7000078000020AD
:102910007000002074000020014611B96FF005001E
:102920007047024801600020FAE7000068000020BC
:102930002DE9FC4180467348006808B9BDE8FC8178
:10294000714801680068401C6F4A10606F4800F8C9
:1029500001806F48006807285AD2DFE800F0055B65
:10296000C2C3045AC10000BF6848007855280CD083
:1029700065480068401E6449086008466349491C70
:102980000268481EFDF7AEFCD8E75F4800680B28D8
:102990003ED30A215D4800F0FDF807465B48807A87
:1029A000B8420CD058480068401E57490860084695
:1029B0005649491C0268481EFDF794FCBEE753487F
:1029C00080785249C97840EA0120ADF800004F48AC
:1029D00000794E49497940EA0120ADF802004B48A0
:1029E00080794A49C97940EA0120ADF80400474896
:1029F000007A4649497A40EA0120ADF80600434989
:102A0000487804226946FEF7A3FC00203E4908608E
:102A10006CE000BF3C480068022860D93B48407821
:102A200003280CD038480068401E37490860084623
:102A30003649491C0268481EFDF754FC7EE73348BE
:102A40008078401D30490968884200D976E72E48D1
:102A50000068401E2D49095C2B480068801E2B4AE7
:102A6000105C41EA002528480088801E81B210468B
:102A700000F074F80646B5420CD023480068401EAA
:102A80002149086008462149491C0268481EFDF793
:102A900029FC53E71D4880784510002414E00420E9
:102AA00000EB44001949085C032101EB4401174A7B
:102AB000515C40EA012000B2164909682144164AD7
:102AC00022F81100601C84B2AC42E8DB29461148B0
:102AD00000680C4A1268904700200B49086005E026
:102AE00000BF00BF00200849086000BF00BF0648C3
:102AF0000068B0F5807F02D100200349086000BF64
:102B00001CE700006800002074000020480100203D
:102B1000780000207C00002048020020014611B906
:102B20006FF005007047024801600020FAE70000DE
:102B300058000020490050EAC12018BF04204A0D67
:102B400018BF40F0010040F2FF72B2EB515F08BFC6
:102B500040F00200012808BF0520704770B5034609
:102B60000C46FF25FF26002200BF00BF09E0985C4D
:102B700080EA05010548405C80EA06050448465C99
:102B8000521CA242F3DB46EA052070BDD037000894
:102B9000D038000810B502460B460020002103E0A3
:102BA000545C0444E0B2491C9942F9D310BD01467B
:102BB00000BF704710B5FFF749F800F017F84FF461
:102BC000165000F01DF9002341F61F421946104629
:102BD000FEF750FEFEF73CFCFEF796FCFFF774FC98
:102BE000FEF7BEFDFEF7A2FD10BD000010B56FF0B0
:102BF0000400FFF715F80A4800680A49B0FBF1F035
:102C0000094908700846007800EB4001C1EBC0108C
:102C10004FF6FF7101EAC0000449088010BD0000B2
:102C20001000002000127A00380000203A00002036
:102C30000146114A12884A434FF0E0235A610022AC
:102C40009A611A46126942F001021A6100BF4FF000
:102C5000E022106900F001021AB100F48032002A6B
:102C6000F5D04FF0E022126922F001024FF0E0238C
:102C70001A6100229A6170473A00002000BF054A9D
:102C8000128802F04002002AF9D0C2B2014B1B1D8B
:102C90001A807047003801400EB5FFF78BFF96E0B1
:102CA0004B48006800F082FC04460D464948006825
:102CB00000F07CFC064632460B4647A0CDE90045B5
:102CC000FDF794FA40F6AC504649086037E0002022
:102CD0004549086029E043480088444908800020AD
:102CE000091D0880091D08803E480088091D0880CC
:102CF0003748006800F05AFC04460D463548006825
:102D000000F054FC06463748006832460B46CDE9D1
:102D10000045029036A0FDF769FA0A20FFF788FF08
:102D200031480068401C304908602F480068C828B6
:102D3000D1DB2C48006800F5FA702A490860294860
:102D4000006841F664118842C1DB084625490860E5
:102D500037E000202449086029E022480088234900
:102D600008800020091D0880091D08801D48008872
:102D7000091D08801648006800F018FC04460D463E
:102D80001448006800F012FC0646164800683246F7
:102D90000B46CDE90045029015A0FDF727FA0A2061
:102DA000FFF746FF10480068401C0F4908600E48B6
:102DB0000068C828D1DB0B480068A0F5FA70094903
:102DC00008600848006840F6AC518842C1DC67E7FB
:102DD000480000204400002025662C2025660D0AAE
:102DE00000000000080000200C0000203404004017
:102DF00025662C2025662C2025640D0A0000000085
:102E000010B586B00446012144F20400FEF7B8FD77
:102E10004FF40070ADF8140003208DF81600182050
:102E20008DF8170005A91C48FEF7C8FB4FF4806019
:102E3000ADF8140004208DF8170005A91648FEF718
:102E4000BDFB25208DF8000003208DF801008DF8D2
:102E5000020001208DF803006846FEF7D3FC0194C0
:102E60000020ADF80800ADF80A00ADF80C00ADF890
:102E700010000C20ADF80E0001A90848FFF730FC47
:102E8000012240F225510548FFF704FC01210348C7
:102E9000FFF7BDFB06B010BD00080140003801403F
:102EA00010B500290AD00878002807D005487844D2
:102EB000FDF750FE002801D0002010BD02487844E4
:102EC00010BD0000D60B0000CE0B000021F0004228
:102ED000A2F16052B2F5801F01F0004328BFD2F189
:102EE0007F6C0BD95FEA001C43EAC20242EB5070D0
:102EF00018BF704728BF20F001007047B2F5801F4F
:102F0000BCBF184670474FEA410C1CF5001F02D2A7
:102F1000084600F056BC70B500F00AFA00000089BF
:102F2000FFF7F6BF4FF00040A0F5800070470000AB
:102F300010B591EA030F48BF83F0004300F15482BB
:102F4000841A71EB030C05D2121943EB0C03001B1E
:102F500061EB0C01DFF824E14FEA1154A4EB135CA0
:102F60001EEA430F18BF9EEA445F73D023EA0E03A4
:102F7000DCF1200E21EA045143F4801332D322FA0B
:102F80000CFE10EB0E0023FA0CFE41EB0E01CCF10F
:102F9000200E03FA0EFE10EB0E0051F10001B1F508
:102FA000801FCCF1200E32D201EB045112FA0EF246
:102FB000BDE8104058BF7047401C38BF5FEA42026E
:102FC00018BF7047002814BF20F0010041F1000134
:102FD0004FEA410313F5001F38BF7047A1F1C0410C
:102FE00000F0F4B9012A43EB0302ACF1200CDCF150
:102FF0001F0E32BF4FF0000E23FA0CF310EB03004C
:1030000041EB0451B4EB115FD0D0A1EB045101F5B9
:10301000801149085FEA300001EB04510ED350F1F2
:10302000000038BF12FA0EFE08D1BDE81040C9E713
:10303000401C38BF5FEA4202CAD1C3E7BDE8104076
:103040004FEA410313F5001F38BF7047A1F1C0419B
:1030500000F0BCB99EEA445F08D011EA5E0FBDE8FB
:10306000104004BF01F0004100207047BDE810404F
:1030700070B500F05DF900BF64FBBE3E0000E0FFEC
:103080002DE9C04130B4DFF8A0C23CEA111418BFEA
:103090003CEA131400F0EC8081EA03051CEA1114E9
:1030A00044EAD57418BF1CEA131500F0C780A4EBDE
:1030B00005044FF0004545EAC12145EAC32341EA32
:1030C000505143EA525304F17F74994204F500349D
:1030D0004FEAC0204FEAC22208BF904200F09C8015
:1030E0004FEA13650FF24016765D4FEA134506FB73
:1030F00005F7C7F1807706FB07F74FEAD737A7FB3D
:1031000003687642C8F58038A7FB06CE38BFA8F121
:10311000010807FB08E64FF0000EA6FB028CE6FB59
:1031200003CEDCF1000CCEF1004E38BFAEF1010E43
:10313000A6FB0C584FF000074FF00005E6FB0E878A
:10314000A1FB08C6A0FB07CE16EB0E0645F1000555
:10315000E1FB076515F1E04E7EBFA4F580345FEA20
:1031600046066D4116F1800745F100054FEA172725
:103170004FEA066647EA0567A6F1DE46B6F1805FCC
:103180004FEA15251FD9384624F0010C05EBC47110
:10319000BCF1FE6F01EB0C1102D8F0BCBDE8008160
:1031A00024425CBF01F5801E9EEAC47F02D4F0BCBD
:1031B000BDE80081244238D4F0BCA1F1C041BDE893
:1031C000004100F003B94FEAD22242EA43524FEAEB
:1031D000D323A7FB02864FEAD02040EA415007FBE9
:1031E00003661EEA0E0F4FEAD12105FB026658BFA7
:1031F000A6EB0056B6EB00564FEA520E4EEAC37EDF
:1032000018EB0E0E56EB530EBDD518EB02085E41BF
:103210007F1C55F10005B6E74FF480154FF000070D
:103220004FF000064FF00008ADE7F0BC4FF0000093
:1032300001F1C04101F00041BDE8008111EA0C1F1D
:103240000CEA131500D00CE013EA0C1F00F02580E7
:103250004FF00000F0BC81EA030101F00041BDE83D
:103260000081F0BCBDE8004181EA030100F0AEB886
:10327000F0BCBDE8004170B500F05AF8097EFC3E94
:1032800000F007B881EA03014FF0000001F00041AF
:10329000704781EA030100F099B8F0BCBDE8004135
:1032A0004FF0000021497047FFFDFBF9F7F5F4F2FC
:1032B000F0EEEDEBE9E8E6E4E3E1E0DEDDDBDAD8D1
:1032C000D7D5D4D3D1D0CFCDCCCBCAC8C7C6C5C42F
:1032D000C2C1C0BFBEBDBCBBBAB9B8B7B6B5B4B346
:1032E000B2B1B0AFAEADACABAAA9A8A8A7A6A5A431
:1032F000A3A3A2A1A09F9F9E9D9C9C9B9A999998F5
:103300009797969595949393929191908F8F8E8E97
:103310008D8C8C8B8B8A8989888887878685858424
:1033200084838382828181800000FF070000F87F10
:103330000EF1020E2EF0030E5EF8046B364205D439
:10334000012A43EB030515F5001F12D8012841EBB4
:10335000010C1CF5001F0CD80ED14FEAD17C15F5DD
:10336000001F0CEB4C0C0CF1020C08BF4CEBD37C97
:1033700004E04FF0080C01E04FEAD37C0CEB4C0565
:1033800026FA05F606F00706B6F1040C06D20EEB97
:10339000860CBDE870404CF0010C6047DFE80CF093
:1033A000090B02024FF000414FF00000A1F500218F
:1033B00070BD19461046012851EB010418BFD4F521
:1033C000001484BF002001F0004170BD0808A0F582
:1033D00000114FEA3101704710B591EA030F48BF61
:1033E00083F000433FF5ACAD841A71EB030C07D2B8
:1033F00012198CF0004C43EB0C03001B61EB0C0129
:10340000DFF8A4E14FEA1154A4EB135C1EEA430F6A
:1034100018BF9EEA445F00F0B08023EA6E03524278
:1034200021EA0451C3EB6E0338BF5B1EDCF1200EB2
:1034300025D322FA0CFE10EB0E0043FA0CFE41EBF2
:103440000E01CCF1200E03FA0EFE10EB0E0051F12E
:103450000001CCF1200E29D412FA0EF201EB045136
:10346000BDE8104058BF7047401C1CBFB2F1004F70
:10347000704700280CBF491C20F00100704712EB78
:10348000020E43EB030218BF4FF0010E4EEA420258
:10349000ACF1200CDCF11E0E54D943FA0CFE10EBFB
:1034A0000E0051F1FF31CCF11E0ED5D50EF1010EFB
:1034B00012FA0EFE404141EB010101EB445C5FEA70
:1034C0005C5C10D910EBDE7001EB045138BFBEF12B
:1034D000004FBDE8104018BF704700280CBF491CC2
:1034E00020F00100704730D24FEAD42C11F50011C2
:1034F00024F400641BD0B1FA81F20B3AA41AA41E82
:10350000D2F12003914030FA03F31943904001EBCC
:10351000CC71002C01EB0451BDE81040A8BF7047EE
:1035200001F1C0414FF0000001F000417047B0FAD6
:1035300080F310FA03F100D110BDE41A173C4805DE
:10354000C90AE4E701EB045110BD491001EB045135
:10355000BDE810404FEA300002E04FF00001704734
:103560004A0008BF0042F8D0B2F5001F28BF7047DC
:1035700001F000414FF0000070479EEA445F07D021
:1035800011EA5E0FBDE8104004BF00210020704723
:10359000BDE8104070B5FFF7CBFE00BF40DFF63E40
:1035A00083F00041104670470000E0FF43004FEAFF
:1035B000D30C4FEA3C0C43401FBF40070CF1605155
:1035C00013F0FE4F70471CF0006F03D100200CF089
:1035D000004170470CF0004343EA507010B540EAD8
:1035E000CC0000F0A8F800BF000000924FEA0001F4
:1035F000FFF7ECBE4FF000414FF00000A1F50021B5
:103600007047000010F0004148BF4042B0FA80F31C
:1036100010FA03F2C3F19D030BD051EAC35101EB41
:103620001220530638BF704700F1010008BF20F098
:10363000010070474FF47F0C1CEAD0121EBF1CEA39
:10364000D11392EA0C0F93EA0C0F00F0478090EA36
:10365000010F48BF42F480724FF0004C4CEA00204A
:103660004CEA012102EB0302A0FB0113A2F50002C8
:10367000002918BF43F001035B0028BF4FEA330362
:1036800042EB22425FEA132C4CEBC2502EBFBCEB44
:10369000436FB2F57C0F70474FEA036CBCF1004FEB
:1036A00008BF20F00100B2F57C0F38BF70470BD582
:1036B00082F0FF0212F5803FC8BF704700F1C040A2
:1036C000D8BF00F00040704700F5000C5FEA4C0CDA
:1036D00048BF7047B0F1C04000F073B890EA010FE6
:1036E0000CEAD11348BF42F48072624538BF63458B
:1036F00004D280EA010000F00040704710B500F0ED
:103700001AF800BF8900013E00F007B800F009B8C0
:103710005FEA410C5FEA1C6C08D080EA010000F00F
:1037200050B85FEA400C5FEA1C6CF6D14FF00040E5
:10373000A0F5800070470EF1020E2EF0030E5EF829
:10374000044B244204D44FEA4102B2F17F4F11D816
:103750004FEA4003B3F17F4F0CD80ED14FEAD07C33
:10376000B2F17F4F0CEB4C0C0CF1020C08BF4CEB90
:10377000D17C04E04FF0080C01E04FEAD17C0CEB67
:103780004C0324FA03F404F00704B4F1040C06D249
:103790000EEB840CBDE810404CF0010C6047DFE8F4
:1037A0000CF0070802024FF00040A0F5800010BDA9
:1037B0000846420018BFD2F1807288BF00F0004076
:1037C00010BDFF2141EAD050C0057047FCF703BF90
:1037D00000C1814001C0804101C0804100C18140E1
:1037E00001C0804100C1814000C1814001C08041D1
:1037F00001C0804100C1814000C1814001C08041C1
:1038000000C1814001C0804101C0804100C18140B0
:1038100001C0804100C1814000C1814001C08041A0
:1038200000C1814001C0804101C0804100C1814090
:1038300000C1814001C0804101C0804100C1814080
:1038400001C0804100C1814000C1814001C0804170
:1038500001C0804100C1814000C1814001C0804160
:1038600000C1814001C0804101C0804100C1814050
:1038700000C1814001C0804101C0804100C1814040
:1038800001C0804100C1814000C1814001C0804130
:1038900000C1814001C0804101C0804100C1814020
:1038A00001C0804100C1814000C1814001C0804110
:1038B00001C0804100C1814000C1814001C0804100
:1038C00000C1814001C0804101C0804100C18140F0
:1038D00000C0C101C30302C2C60607C705C5C404B0
:1038E000CC0C0DCD0FCFCE0E0ACACB0BC90908C820
:1038F000D81819D91BDBDA1A1EDEDF1FDD1D1CDC10
:1039000014D4D515D71716D6D21213D311D1D0107F
:10391000F03031F133F3F23236F6F737F53534F46F
:103920003CFCFD3DFF3F3EFEFA3A3BFB39F9F838DF
:1039300028E8E929EB2B2AEAEE2E2FEF2DEDEC2CCF
:10394000E42425E527E7E62622E2E323E12120E03F
:10395000A06061A163A3A26266A6A767A56564A42F
:103960006CACAD6DAF6F6EAEAA6A6BAB69A9A8689F
:1039700078B8B979BB7B7ABABE7E7FBF7DBDBC7C8F
:10398000B47475B577B7B67672B2B373B17170B0FF
:1039900050909151935352929656579755959454EF
:1039A0009C5C5D9D5F9F9E5E5A9A9B5B995958985F
:1039B000884849894B8B8A4A4E8E8F4F8D4D4C8C4F
:1039C00044848545874746868242438341818040BF
:1039D00002400000000000A00000000005400000C0
:1039E000000000C8000000000C4000000000409CE7
:1039F00000000000194000000020BCBE00000000D4
:103A000034400000BFC91B8E00000004B540000018
:103A1000504BCFD06607E2CF010000006C410000A0
:103A20003E8251AADFEEA73401000000D942000017
:103A3000DCB5A0E23A301F97FFFFFFFFB44500005E
:103A4000FD25A0C8E9A3C14FFFFFFFFFFF3F000016
:103A50000000008000000000FF3F00000000008028
:103A600000000000A03A00080000002080000000D4
:103A700028010008203B00088000002048090000C1
:103A8000440100081C00000043000000F8FFFFFF95
:103A90000C0000000E0000000F0000002E000000CF
:103AA0000000000000000000000000000000000016
:103AB00000A24A040000000000000000010203040C
:103AC00006070809000000000102030401020304C4
:103AD00006070809020406080000000000000000B4
:103AE00000000000000000000000000000FF0000D7
:103AF00000000000000000000000000000000000C6
:103B000000000000000000000000000000000000B5
:103B1000FF000000000000000000000000000000A6
:04000005080000ED02
:00000001FF
