:020000040800F2
:10000000180A0020A90100087D1A00087B180008C2
:10001000791A0008EF130008B52C00080000000052
:10002000000000000000000000000000311D00087A
:100030009516000800000000D91B0008DD2000080C
:10004000C3010008C3010008C3010008C301000880
:10005000C3010008C3010008C3010008C301000870
:10006000C3010008C3010008C3010008C301000860
:10007000C3010008C3010008C3010008C301000850
:10008000C3010008C3010008C3010008C301000840
:10009000C3010008C3010008C3010008C301000830
:1000A000C3010008E9230008C3010008C3010008D8
:1000B0005D240008C301000875240008C30100087E
:1000C000C3010008C3010008C3010008C301000800
:1000D000C3010008E9290008712A0008C3010008CB
:1000E000C3010008C3010008C301000800F002F8C2
:1000F00000F04AF80AA090E8000C82448344AAF178
:100100000107DA4501D100F03FF8AFF2090EBAE875
:100110000F0013F0010F18BFFB1A43F0010318473B
:10012000183E0000383E0000103A24BF78C878C15D
:10013000FAD8520724BF30C830C144BF04680C60ED
:10014000704700000023002400250026103A28BF35
:1001500078C1FBD8520728BF30C148BF0B60704739
:10016000662903F0AF84642900F04C8000207047BA
:100170001FB500F0FDFB04000020002103F0B4FADD
:10018000E0601FBD10B510BD00F00AFD1146FFF77D
:10019000EFFF03F007FA00F028FD03B4FFF7F2FFCA
:1001A00003BC03F08BF90000094880470948004769
:1001B000FEE7FEE7FEE7FEE7FEE7FEE7FEE7FEE717
:1001C000FEE7FEE704480549054A064B7047000074
:1001D000E1200008ED00000818040020180A0020A3
:1001E0001806002018060020704700000FB40449CC
:1001F00010B503AA029800F077FB10BC5DF814FB61
:10020000300000202DE9F0410646002410687529D1
:10021000314616A510D0AFF30080002802DA404224
:1002200013A507E031688A0701D512A502E0490746
:1002300004D511A5012401E0AFF3008000210A22BA
:1002400006F1240709E0B0FBF2FCB0FBF2F302FB7D
:100250001C00303078541846491C0028F3D123463E
:100260002A463046BDE8F04100F0D8B80000000052
:100270002D0000002B000000200000002DE9F047B9
:100280004FF0000A89460446C0F820A02046E168E5
:100290008847002876D0252806D0D4E90121904748
:1002A000206A401C2062F1E7E1682046002588476B
:1002B000C4F81CA006460027C4F818A02A2E09D0AE
:1002C000304603F0F4F838B304EB8708303EC8F842
:1002D000186019E059F8041B204604EB870291616D
:1002E000E1688847012F064618D1E069002820DA26
:1002F00025F020051DE0D8F8180000EB800006EB83
:1003000040003038C8F818002046E16888470646A3
:1003100003F0CDF80028EED1012F0AD02E2E08D1FF
:100320002046E16888477F1C0646022F45F02005DD
:10033000C4DBA069002803DA404245F00105A06152
:10034000E80701D025F01005B6B1A6F14100192843
:1003500002D8203645F400654A46314620462560DD
:100360004D46FFF7FDFE58B1012806D0ED1D25F0E2
:10037000070000F1080989E704E005F1040985E7B1
:1003800030468AE7206ABDE8F087032A40F23080D1
:1003900010F0030C00F0158011F8013BBCF1020FC6
:1003A000624498BF11F801CB00F8013B38BF11F847
:1003B000013BA2F1040298BF00F801CB38BF00F85E
:1003C000013B11F0030300F0A182083AC0F008805D
:1003D00051F8043B083A51F804CBA0E80810F5E7BF
:1003E000121D5CBF51F8043B40F8043BAFF30080A2
:1003F000D20724BF11F8013B11F801CB48BF11F817
:10040000012B24BF00F8013B00F801CB48BF00F8E6
:10041000012B704770477047704770472DE9F047D0
:100420000D4699469246044600F124080168880664
:1004300004D5E06921F01001216000E00120A8420C
:1004400001DD471B00E00027A1697A1902EB0900D2
:10045000081AA0612078C00602D42046AFF30080BD
:10046000002608E0D4E901211AF806009047206A26
:10047000401C761C20624E45F4DB2078C0060AD56D
:100480002046AFF3008006E0D4E9012130209047F8
:10049000206A401C2062381EA7F10107F4DC07E047
:1004A000D4E9012118F805009047206A401C206219
:1004B000281EA5F10105F3DC2046AFF3008020786B
:1004C000000602D50220BDE8F0870120FBE7704757
:1004D0002DE9FF4F0C461E464FF0FF378BB0D2E997
:1004E0000001DDF860800A908A46C1F30A5505B91B
:1004F0003D46002108464FF00000BAF1000F00F41D
:10050000400005DA00EB80004FF4400101EA5000A2
:100510004FEA9059B9F1010F00DDB9460A9850EA47
:100520004A000ED044F61050A5F2FF3545432F1473
:10053000B8F1000F1ED07542291E1EDDC9F1000260
:100540001CE0B8F1010F4FF0000001D0302103E0B2
:10055000F24305E02154401CB042FBDB3046002250
:10056000002121540B99C1F80880C1E900200FB087
:10057000BDE8F08FBD1B6D1CDEE74A4600DA69421C
:1005800006A800F097FA06AB93E8070003AB83E8F0
:10059000070050460A9900F06FFB8DE80700A0F5B0
:1005A00000501F3800900398002D09DD42F21F0112
:1005B0004A46084403A90390684600F0CEFD08E0CF
:1005C000A0F500504A461F3803A90390684600F082
:1005D000D8FD8DE807000004000C03D04FF0FF3079
:1005E000410800E01046B8F1000F03D0002200924D
:1005F00015461EE0751E05D400F0BEF93032625576
:100600006D1EF9D5B3460122084302D000227F1C9B
:1006100004E02078302801D100227F1E002A0997AB
:1006200086D01DE0112D07DA00F0A6F930326255B0
:100630006D1C50EA0102F5D1084302D00098C8B100
:100640000EE00021681E05E0235C625C63542254C6
:10065000401E491C8142F7DBAB46A81B401E099097
:10066000002004F80B000B98099AC0F80880C0E934
:10067000002B7CE711264FF0000859E72DE9F04FD9
:1006800088460446D21D22F0070191B0D1E900014D
:10069000CDE90A0102F0CEFE02460B98C00F01D050
:1006A0002D2007E02068810701D52B2002E02021C2
:1006B00001EAC000032A099001D0072A05DB03469E
:1006C0004146204600F0B6F90BE12078800601D5BE
:1006D000E06900E00620B8F1650F814606D0B8F168
:1006E000660F18D0B8F1670F70D131E00020B9F172
:1006F000110F009001DB112301E009F101030AAAA7
:1007000001A90CA8FFF7E4FEDDE90C70002609F151
:100710000105834647E001204B4600904FF000471B
:100720000AAA01A90CA8FFF7D3FEDDE90DB00C99C8
:100730005D46002610B909F101000D18B9EB05005E
:1007400003D4C0F1FF3609F10105A5EB09002BE048
:10075000B9F1010F01DA4FF001090020B9F1110FD1
:100760000090484601DD112300E003460AAA01A9D2
:100770000CA8FFF7ADFEDDE90C704D460026834660
:10078000207800070AD4AB4500DA5D4601A8012DA8
:1007900004DD411911F8011C302907D04F4502DA58
:1007A00017F1040F04DA012082460FE06D1EEEE718
:1007B000002F02DCED1B3E4403E0781CA84200DD64
:1007C0007D1CB81B00F1010A4FF00047207800079C
:1007D00003D4AA4501DB4FF0FF3A0021B7F1004FE7
:1007E0000DF143088DF8431024D002202B23002F55
:1007F00001DA7F422D230A21021EA0F1010000DC54
:100800005FB197FBF1FC97FBF1F201FB1C7C1746F3
:100810000CF1300C08F801CDEEE7A8F101000370EF
:100820002188090501D5452100E06521A0F10108D5
:1008300000F8011C09980FA9A1EB0807FF1D00B1E2
:100840000120411901EBEA70A1693844081A401EE1
:10085000A0612078C00602D42046AFF3008009983A
:1008600028B1D4E901219047206A401C20622078F9
:10087000C00622D52046AFF300801EE0002E04DB28
:10088000B34502DD01A8805D00E03020D4E90121FC
:100890009047206A401C2062761CAAF101005FEAA2
:1008A000000A0AD100F064F8C0680168405CD4E92D
:1008B00001219047206A401C2062281EA5F10105F5
:1008C000DCDC07E0D4E9012118F8010B9047206A2D
:1008D000401C2062381EA7F10107F3DC2046AFF36D
:1008E0000080032011B043E6074B70B50D467B44F2
:1008F00000F08DF80446284600F04AF910B14FF098
:10090000FF3070BD204670BD972C000010B5203A16
:10091000C0F00B80B1E81850203AA0E81850B1E8B8
:100920001850A0E81850BFF4F5AF5FEA027C24BF6E
:10093000B1E81850A0E8185044BF18C918C0BDE865
:1009400010405FEA827C24BF51F8043B40F8043B2E
:1009500008BF7047D20728BF31F8023B48BF11F8E3
:10096000012B28BF20F8023B48BF00F8012B70473D
:1009700000487047D403002030B5B0F10A024FEAB6
:10098000900E71F100034EEA817EB0EB0E0061EB38
:1009900091014FEA101E4EEA017E10EB0E0041EB72
:1009A00011114FEA102E4EEA016E10EB0E0041EBD2
:1009B00011214FEA104E4EEA014E10EB0E0041EBB2
:1009C0001141401841F100014FEAD00040EA417066
:1009D0004FEAD10110EB80054FEA810444EA90749C
:1009E00044EB01046D1944EB0404521BA3414FF086
:1009F000000348BF0A3200D530BD401C41F1000160
:100A000030BD000001694A1C02610878704700B5DA
:100A10008FB0CDE901310021059105497944CDE937
:100A2000031011466846FFF729FC0FB000BD000017
:100A3000E5FFFFFF2DE9F0411F460446032601684C
:100A4000072A01F4006004DB08B116A505E016A52D
:100A500003E008B115A500E015A521F01000206005
:100A6000A069C01EA0610FB1401EA0612046AFF377
:100A700000804FB1D4E9012138469047206A401CDC
:100A80002062C01C206206E0206AFAE7D4E9012156
:100A900015F8010B9047761EF8D22046AFF3008080
:100AA000BDE8F0814E414E006E616E00494E460039
:100AB000696E66002DE9F047814616468AB03348D4
:100AC00078440DC88DE80D0030487844801C03AC94
:100AD0000DC884E80D0041F69B300844372190FB97
:100AE000F1F290FBF1F5A5F1800501FB12041B3C2E
:100AF00002D56442012000E00020DFF890A080468B
:100B00000027FA44AAF1BE0A0DE0E00709D03246F8
:100B1000684607EB47010AEB810100F032FB8DE8E4
:100B2000070064107F1C002CEFD1184F7F44AC3FAE
:100B300018E0E80714D007EB04100DF1180A90E84C
:100B40000E008AE80E00C068F04201D198190890A2
:100B5000324606A903A800F014FB03AB83E80700A4
:100B60006D10641C002DE4D132466946B8F1000FC7
:100B700003A802D000F0F1FA01E000F002FBC9E99D
:100B80000001C9F808200AB0BDE8F087A8320000CB
:100B9000007B00F08000704700487047B4030020DD
:100BA0007546FFF7F9FFAE4605006946534620F04B
:100BB0000700854618B020B5FFF704FBBDE82040CC
:100BC0004FF000064FF000074FF000084FF0000B09
:100BD00021F00701AC46ACE8C009ACE8C009ACE8BC
:100BE000C009ACE8C0098D4670470446AFF30080E9
:100BF0002046FFF7D2FA00004FF0013C50F8042BDA
:100C000051F8043B9A4221D1A2EB0C03934313EA1F
:100C1000CC1317D150F8042B51F8043B9A4215D14C
:100C2000A2EB0C03934313EACC130BD150F8042B23
:100C300051F8043B9A4209D1A2EB0C03934313EA07
:100C4000CC13DBD04FF00000704700BFD01A01BAC0
:100C5000B1FA81F101F0180122FA01F0CB40C1F1A3
:100C60002001DBB2C0B2C01A2CFA01F3D11A9143B1
:100C700011EAC311E6D170475FEA400C08BF91F05A
:100C8000000F4FEA8C234FEAC12243EA51514FEA49
:100C90001C5018BF00F5F0404FEA300018BF41F07B
:100CA00000415FEA6C5C00F02980BCF1FF3F08BFA7
:100CB00040F080407047130C06BF12044FF0100C38
:100CC0004FF0000C130E04BF12020CF1080C130FAE
:100CD00004BF12010CF1040C930F04BF92000CF13D
:100CE000020CD30F04BF52000CF1010C11464FF05F
:100CF0000002A0F11F00A0EB0C00704711F0004FA4
:100D000008BF704731F000413FF4D5AF0B0C06BF70
:100D100009044FF0100C4FF0000C0B0E04BF090239
:100D20000CF1080C0B0F04BF09010CF1040C8B0F24
:100D300004BF89000CF1020CCB0F04BF49000CF179
:100D4000010CCCF12003A0EB0C0022FA03F302FA11
:100D50000CF241EA030100F10100704720F07F4CE2
:100D600080EA030023F07F47ACEB070303F57C53D5
:100D700000F0004003F1FF032DE980494FEA154BD5
:100D800009B44FEA144325EA0B4E24EA03480FF254
:100D9000042606EB132749083E785FEA320203FB7C
:100DA0000667C7F5000707FB06F64FEA54374FEA18
:100DB000D64606F1020607FB066CCCF1005C4FEA52
:100DC0001C472CEA074C07FB06F40CFB06F504EB6A
:100DD00015464FEA961634BF00204FF000404FEA08
:100DE000D13706FB07FC4FEA1C4C0CFB0BF7D21B60
:100DF00003FB0CF761EB07010CFB0EF7B0EB0740B0
:100E000072EB17420CFB08F734BFA2EB0742B2EBC0
:100E1000074261EB17414FEA0C444FEA910706FB8A
:100E200007FC4FEA1C4C0CFB0BF7B0EBC74072EB16
:100E3000573203FB0CF734BFA2EBC742B2EBC742F9
:100E400061EB57310CFB0EF7B0EBC70072EB57723A
:100E50000CFB08F734BFA2EBC702B2EBC70261EB91
:100E60005771039F4FEA816141EA921104EBCC0470
:100E70004FEAD1374FEA826206FB07FC42EA901242
:100E80004FEA80604FEA1C4C0CFB0BF7D21B03FBB4
:100E90000CF761EB07010CFB0EF7B0EB074072EBB0
:100EA00017420CFB08F734BFA2EB0742B2EB074234
:100EB00061EB17414FEA8C554FEA910704EB9C24F4
:100EC00006FB07FC4FEA1C4C0CFB0BF7B0EBC740D2
:100ED00072EB573203FB0CF734BFA2EBC742B2EB05
:100EE000C74261EB57310CFB0EF7B0EBC70072EB5A
:100EF00057720CFB08F734BFA2EBC702B2EBC70274
:100F000061EB577115EB4C254FEA816141EA921173
:100F10004FEA82624FEAD13742EA901206FB07FCA1
:100F200044F100044FEA80604FEA1C4C0CFB0BF7C5
:100F3000D21B03FB0CF761EB07010CFB0EF7B0EBC8
:100F4000074072EB17420CFB08F734BFA2EB0742D5
:100F5000B2EB074261EB174115EB1C154FEA8131EB
:100F600041EA92414FEA823242EA90424FEA8030AF
:100F70004FEA0C7644F1000448EA03434EEA0B487A
:100F80004FF0000EB2EB080C71EB030724BF624672
:100F900039464EEB0E0E4FF0000B001852414941FE
:100FA0004BEB0B0BB2EB080C71EB03077BF1000B67
:100FB00024BF624639464EEB0E0E4FF0000B001870
:100FC000524149414BEB0B0BB2EB080C71EB0307A1
:100FD0007BF1000B24BF624639464EEB0E0E51EA00
:100FE000020718BF46F0010616EB0E7655F1000217
:100FF00054F1000103D5BDE88901BDE80088BDE8D2
:101000008901BDE80048B619524141EB0101A3F145
:101010000103704780807F7E7D7C7B7A797877764C
:1010200076757473727171706F6E6E6D6C6C6B6AC5
:101030006A69686867666665646463636261616063
:10104000605F5F5E5E5D5D5C5C5B5B5A5A595958E0
:10105000585757565655555554545353525252514A
:10106000515050504F4F4F4E4E4D4D4D4C4C4C4BA0
:101070004B4B4A4A4A4949494848484747474746E7
:101080004646454545444444444343434342424223
:1010900042414141002B26D4770021D01CB54FEAB4
:1010A000370703B44FF010004FF010014FF000006D
:1010B0000FBCBDE810400BF1010BBBF1010F08BFE5
:1010C0005FEA170722BF12F1010211F101014FF08F
:1010D000004143F1000300F0004043EA0000704784
:1010E000F9D35708DAE746EA064613F1400F4FEA0C
:1010F00016461FDD13F1200FDFBF16430A460021FD
:1011000020335B42C8D0C3F1200746EA064602FA04
:1011100007F74FEA164646EA0706C3F1200722FA08
:1011200003F201FA07F721FA03F14FF0000342EA54
:101130000702B1E746EA020646EA06464FEA1646C5
:1011400046EA0106BCBF46EA0646360C4FF00003ED
:101150004FF000024FF000019EE72DE9C048934692
:1011600030B491E8380007C831EA400C48BF34EA8F
:10117000430C03D5FFF7F2FDFFF78CFFF0BCBDE891
:1011800000882DE9C048934630B491E8380007C87C
:1011900010F0804F08BF13F0804F03D100F005F826
:1011A000FFF778FFF0BCBDE8008820F07F4780EAB9
:1011B000030023F07F4C07EB0C03A3F57C5300F0F6
:1011C0000040A3F1FE0392F0000F00F0B38095F011
:1011D000000F00F077802DE901494FEA11404FEAF6
:1011E000144621EA004800FB06FC24EA064708FBF7
:1011F00006F607FB08F800FB07F718EB06484CEB70
:10120000164C4FEA124B18EB07484FEA15464CEBC9
:10121000174022EA0B4E0BFB06FC25EA06470EFBA5
:1012200006F607FB0EFE0BFB07F71EEB064E4CEB1C
:10123000164C4FF000061EEB074E4CEB174B18EB0D
:101240000B0840F1000018EB0E0B58EB000840F1C2
:1012500000008F1A4FF000013CBFC943661B14BF4A
:10126000B5EB040C00213CBFC943F61B4FEA174401
:101270004EEA8E0E27EA04454FEA1C4704FB07623C
:101280002CEA074C05FB07F70CFB05F604FB0CFCEE
:1012900016EB074642EB174216EB0C4642EB1C429C
:1012A0001BEB060658EB0202414146EA9E0601D5B9
:1012B000BDE80189B619524141EB0101A3F10103D7
:1012C000BDE801894FEA14454FEA114724EA054673
:1012D00021EA074C05FB07F406FB07F70CFB06F1B8
:1012E00005FB0CFC11EB074144EB17444FEA124796
:1012F00011EB0C4144EB1C4422EA074C05FB07F2BE
:1013000006FB07F70CFB06F605FB0CFC16EB074685
:1013100042EB174216EB0C4642EB1C456A1854F19F
:10132000000148BF7047B619524141EB0101A3F1DA
:101330000103704795F0000F37D04FEA11424FEA92
:10134000144721EA024624EA074C02FB07F106FB98
:1013500007F70CFB06F402FB0CFC14EB074441EB13
:1013600017414FEA154714EB0C4441EB1C4125EAA9
:10137000074C02FB07F506FB07F70CFB06F602FB22
:101380000CFC16EB074645EB174516EB0C4645EBF8
:101390001C42121951F1000148BF7047B619524161
:1013A00041EB0101A3F1010370474FEA14454FEAF5
:1013B000114724EA054621EA074C05FB07F106FB25
:1013C00007F70CFB06F24FF0000605FB0CFC12EBD6
:1013D000074241EB174112EB0C4251EB1C4148BF55
:1013E0007047921841EB0101A3F10103704700BF60
:1013F000FEE703468B4203DB934201DC012070478A
:101400000020FCE710B544480078632874D00EDC57
:10141000552836D006DC42283BD0432863D05228DA
:1014200075D150E061280FD0622870D13EE06D2860
:1014300011D004DC652815D0682868D164E07228D2
:1014400049D0752863D114E001F0B8FE10B133A083
:10145000FEF7CCFE5BE001F0F1FE10B135A0FEF727
:10146000C5FE54E001F014FF10B132A0FEF7BEFE3D
:101470004DE0062001F0B4FD10B134A0FEF7B6FE39
:1014800045E0002001F0ACFD10B130A0FEF7AEFE4B
:101490003DE0062001F03AFE18B132A0FEF7A6FEAC
:1014A00003E03549886901F007FC30E0022001F0D3
:1014B0002DFE18B12BA0FEF799FE03E02E49886897
:1014C00001F0FAFB23E0062001F0ECFD10B12BA0A7
:1014D000FEF78CFE1BE0032001F0E4FD10B127A015
:1014E000FEF784FE13E01E2001F0A6FD10B128A037
:1014F000FEF77CFE0BE0FFE7022001F09DFD10B13E
:1015000023A0FEF773FE02E000F0C8FC00BF00BF9E
:10151000FF200149087010BD690000200D0A5365C5
:10152000742041636343616C69204572726F720D70
:101530000A0000000D0A536574204D616743616C19
:1015400069204572726F720D0A0000000D0A536522
:10155000742042616E647769647468204572726FAA
:10156000720D0A000D0A53657420426175642045AE
:1015700072726F720D0A0000C83C00080D0A5365B4
:10158000742052617465204572726F720D0A0000FA
:101590000D0A53657420525357204572726F720DB5
:1015A0000A0000002DE9F84F07460C4690464FF020
:1015B0000009CA4600250026A346A01D0090042568
:1015C000A7F1500010283AD2DFE800F01608190FF2
:1015D0001E2326292C2F3239393939354FF0340959
:1015E00003254FF0400A01262BE04FF03D0903256B
:1015F0004FF02E0A012624E04FF0300921E04FF091
:1016000037094FF003081CE04FF03A094FF0030888
:1016100017E04FF0410914E04FF0450911E04FF099
:1016200049090EE04FF04D090BE04FF0510908E079
:101630004FF0550905E01448D0F8009001E0BDE8EE
:10164000F88F00BFB8F1030F01D1032500265DB16B
:101650006A000E4901EB49005946FEF796FE2946FD
:1016600048460B4A126890475EB17200074901EB89
:101670004A000099FEF789FE31465046044A126836
:10168000904700BFDBE70000640000203C02002020
:1016900050000020704710B50446204601F04EFF70
:1016A00010BD000000B587B00121084600F096FA91
:1016B00001210C2000F0A2FA0320ADF80000042064
:1016C0008DF803006946234800F048F84FF4406065
:1016D000ADF8000004208DF8030069461E4800F0B4
:1016E0003DF804A801F076F90020ADF810004FF69F
:1016F000FF70ADF814000020ADF81600ADF8120030
:1017000004A94FF0804001F013F900231A46032189
:101710004FF0804000F0E7FE01A800F06DFF0A20C6
:10172000ADF80C0001A9400700F010FF0121880767
:1017300000F0B8FE01221146900700F066FF00217C
:101740004FF0804001F0C5F80121880700F0B0FE9D
:1017500007B000BD00080140000C01402DE9F04138
:10176000024600250026002000230024002791F8CF
:1017700003C00CF00F0591F803C00CF0100CBCF185
:10178000000F03D091F802C04CEA050591F800C0A3
:10179000BCF1000F31D0146800202BE04FF0010C99
:1017A0000CFA00F3B1F800C00CEA03069E4220D107
:1017B00083004FF00F0C0CFA03F7BC4305FA03FC4F
:1017C0004CEA040491F803C0BCF1280F06D14FF095
:1017D000010C0CFA00FCC2F814C00AE091F803C036
:1017E000BCF1480F05D14FF0010C0CFA00FCC2F817
:1017F00010C0401C0828D1D31460B1F800C0BCF15F
:10180000FF0F34DD546800202EE000F1080C4FF08B
:10181000010808FA0CF3B1F800C00CEA03069E4276
:1018200021D183004FF00F0C0CFA03F7BC4305FAEB
:1018300003FC4CEA040491F803C0BCF1280F05D165
:1018400000F1080C08FA0CF8C2F8148091F803C0F3
:10185000BCF1480F07D100F1080C4FF0010808FA5D
:101860000CF8C2F81080401C0828CED35460BDE8A4
:10187000F081416170470161704700BFFEE70000E1
:1018800010B54FF4165001F017FA5021002001F066
:1018900083FA054801F098FB044801F093FA0448E4
:1018A00001F06EFA10BD0000A51D0008351D0008EE
:1018B0009716000870B5FFF7A5FD4048007800288E
:1018C0007BD000203E49086047E03D49096834313B
:1018D0003C4A32F9110002F011F805464FF08E41F2
:1018E00001F04AFF04464FF0834102F01FF83649E9
:1018F000334A126841F82200314909683731314AC8
:1019000032F9110001F0FAFF05464FF08E4101F067
:1019100033FF04462D4902F009F82D49284A126880
:1019200041F82200264909683D31264A32F9110062
:1019300001F0E4FF05464FF08E4101F01DFF044623
:10194000244901F0F3FF24491D4A126841F822009E
:101950001B480068401C1A490860194800680328A1
:10196000B3DB1648007800F0010028B11348007876
:1019700020F00100114908701048007800F00200C2
:1019800028B10E48007820F002000C4908700B487E
:10199000007800F0040028B10848007820F0040026
:1019A000064908700548007800F0080028B103488F
:1019B000007820F008000149087070BD6800002020
:1019C0006C0000203C0200205C0300200000FA4470
:1019D00068030020000034437403002008B501218F
:1019E000102000F00BF94FF48040ADF800004820C3
:1019F0008DF8030003208DF8020069461C48FFF7AC
:101A0000ADFE0121102000F0F9F84FF40050ADF8C0
:101A1000000048208DF8030003208DF8020069467D
:101A20001348FFF79BFE0121102000F0E7F84FF468
:101A30000040ADF8000048208DF8030003208DF829
:101A4000020069460A48FFF789FE0121082000F0DC
:101A5000D5F84FF48050ADF8000048208DF8030011
:101A600003208DF8020069460248FFF777FE08BDA3
:101A700000100140000C014000BFFEE7704700006D
:101A800070B5002100230F22C47804B3154C2468DC
:101A900004F4E064C4F5E064210AC1F10403CA401F
:101AA000447804FA03F184781440214309010E4C70
:101AB0000678A155047804F01F050124AC40057890
:101AC0006D11AD0005F1E025C5F8004109E004788D
:101AD00004F01F050124AC40044D0678761145F84A
:101AE000264070BD0CED00E000E400E080E100E085
:101AF000F0B589B004460D4616461F4601210C205C
:101B000000F07CF80121022000F068F818208DF820
:101B10002300C020ADF8200002208DF8220008A983
:101B20002A48FFF71BFE18208DF823000320ADF88C
:101B3000200002208DF8220008A92548FFF70EFE9C
:101B4000ADF81840ADF814500020ADF81A00ADF80B
:101B5000160005A91F4800F0EBFE6020ADF8040058
:101B60000020ADF80A00ADF80C000120ADF8060029
:101B700001A9184800F052FD01A9164800F0A4FD83
:101B800001A9144800F000FE01A9124800F056FE19
:101B90000121104800F098FC08210E4800F08AFD51
:101BA00008210C4800F0E2FD08210A4800F03CFE44
:101BB0000821084800F080FE0121064800F066FC7C
:101BC0000121044800F074FC09B0F0BD0008014098
:101BD000000C0140000400407047000029B1064A93
:101BE000D2690243044BDA6104E0034AD2698243BA
:101BF000014BDA61704700000010024029B1064A2B
:101C000092690243044B9A6104E0034A9269824359
:101C1000014B9A61704700000010024030B500216E
:101C20000022002400232D4D6D6805F00C0121B128
:101C3000042905D0082923D105E0294D056022E0BB
:101C4000274D05601FE0254D6D6805F47012234D8A
:101C50006D6805F48034022505EB92421CB9214DD4
:101C6000554305600BE01D4D6D6805F400351DB151
:101C70001C4D5543056002E0194D5543056002E0D7
:101C8000174D056000BF00BF144D6D6805F0F001F1
:101C90000909154D6B5C0568DD4045600F4D6D68A9
:101CA00005F4E061090A104D6B5C4568DD40856014
:101CB0000A4D6D6805F46051C90A0B4D6B5C4568AF
:101CC000DD40C560054D6D6805F44041890B074D49
:101CD0006B5CC568B5FBF3F5056130BD00100240D3
:101CE00000127A0000093D001800002028000020A2
:101CF0000146022902D0042910D108E04FF08042A9
:101D0000928C10B200224FF080439A8408E0074A78
:101D1000128810B20022054B1A8001E0002000BF9B
:101D200000BF002800DA404270470000240800404D
:101D30007047000010B500222EE0362806D0392862
:101D40000BD03C2810D03F281CD114E0144B1B783A
:101D500043F00103124C23701BE0114B1B7843F03E
:101D600002030F4C237014E00D4B1B7843F0080363
:101D70000B4C23700DE00A4B1B7843F00403084C16
:101D8000237006E0064B1B7843F08003044C23705D
:101D900000BF00BF401C521C8A42CED310BD0000C1
:101DA0006800002070B504460D462946204600F024
:101DB00063FF70BD10B500F001F810BD0CB5002038
:101DC000019000903348006840F480303149086049
:101DD00000BF3048006800F4003000900198401CBB
:101DE0000190009818B90198B0F5A06FF1D1294879
:101DF000006800F4003010B10120009001E00020E4
:101E000000900098012843D12348006840F010005A
:101E1000214908600846006820F003000860084671
:101E2000006840F0020008601A484068194948609C
:101E30000846406848600846406840F48060486052
:101E40000846406820F47C1048600846406840F42A
:101E5000E81048600846006840F08070086000BFE5
:101E60000C48006800F000700028F9D0094840686C
:101E700020F00300074948600846406840F002002F
:101E8000486000BF0348406800F00C000828F9D102
:101E90000CBD0000001002400020024010B51548A3
:101EA000FEF7A4F91448FEF7A1F914A0FEF79EF975
:101EB0001E48FEF79BF91EA0FEF798F926A0FEF734
:101EC00095F930A0FEF792F93BA0FEF78FF947A0F5
:101ED000FEF78CF953A0FEF789F96048FEF786F902
:101EE0005FA0FEF783F96BA0FEF780F97048FEF75C
:101EF0007DF910BDF43E0008843D00085541525460
:101F00002053454E443A615C725C6E202020416350
:101F100063656C65726174696F6E2063616C696280
:101F2000726174696F6E2E0D0A0000008C3E00080D
:101F3000554152542053454E443A555C725C6E20D4
:101F4000202042616E64776964746820696E6372F0
:101F5000656173652E0D0A00554152542053454E5C
:101F6000443A755C725C6E20202042616E64776931
:101F700064746820726564756374696F6E2E0D0AEF
:101F800000000000554152542053454E443A425CF3
:101F9000725C6E202020426175642072617465203D
:101FA000696E6372656173656420746F20313135C9
:101FB0003230302E0D0A0000554152542053454E08
:101FC000443A625C725C6E2020204261756420722B
:101FD00061746520726564756374696F6E20746FD7
:101FE00020393630302E0D0A000000005541525481
:101FF0002053454E443A525C725C6E202020546857
:10200000652072657475726E207261746520696EE8
:102010006372656173657320746F203130487A2E66
:102020000D0A0000554152542053454E443A725C0B
:10203000725C6E2020205468652072657475726E23
:10204000207261746520726564756374696F6E20B7
:10205000746F2031487A2E0D0A000000283E0008D7
:10206000554152542053454E443A635C725C6E2095
:10207000202052657475726E20636F6E74656E7485
:102080003A20616363656C65726174696F6E2E0DD1
:102090000A000000554152542053454E443A685CB2
:1020A000725C6E20202068656C702E0D0A000000A6
:1020B000D43D0008042808D14FF0E021096941F01F
:1020C00004014FF0E022116107E04FF0E0210969BF
:1020D00021F004014FF0E0221161704770470000C9
:1020E00010B51348006840F0010011490860084627
:1020F0004068104908400E494860084600680E498B
:1021000008400B4908600846006820F480200860F9
:102110000846406820F4FE0048604FF41F008860C5
:10212000FFF748FE4FF000600449086010BD000052
:10213000001002400000FFF8FFFFF6FE08ED00E08F
:10214000F0B50C46154600220021068C4FF6FE77AE
:102150003E400684028B018C4FF60C7632407E1C8A
:1021600006EA03162E433243104EB0420ED0104EF4
:10217000B0420BD0B0F1804F08D00E4EB04205D027
:102180000D4EB04202D00D4EB04206D14FF6FD7654
:10219000314044F00106314305E04FF6F576314019
:1021A00044F00106314302830184F0BD002C01405C
:1021B000003401400004004000080040000C0040D2
:1021C000F0B50C461546002200210026078C4FF67C
:1021D000EF7C07EA0C070784028B018C4FF6FF7730
:1021E00007EA041640F6FF473A404FF6FF7707EA42
:1021F00003373A434FF6FF7707EA05273A43114F73
:10220000B8420ED0104FB8420BD0B0F1804F08D07A
:102210000E4FB84205D00E4FB84202D00D4FB84213
:1022200006D14FF6DF77394046F01007394305E015
:102230004FF65F77394044F0100739430283018439
:10224000F0BD0000002C01400034014000040040BB
:1022500000080040000C0040F0B50C461546002276
:1022600000210026078C4FF6FF6C07EA0C07078455
:10227000828B018C4FF6FF7707EA04264FF60C7726
:102280003A404FF6FF7707EA03172F433A43114FBF
:10229000B8420ED0104FB8420BD0B0F1804F08D0EA
:1022A0000E4FB84205D00E4FB84202D00D4FB84283
:1022B00006D14FF6FF57394046F48077394305E0A1
:1022C0004FF2FF57394044F48077394382830184C9
:1022D000F0BD0000002C014000340140000400402B
:1022E00000080040000C0040F0B50C4615460022E6
:1022F00000210026078C4EF6FF7C07EA0C070784B6
:10230000828B018C4FF6FF7707EA043640F6FF47D1
:102310003A404FF6FF7707EA05273A434FF6FF7733
:1023200007EA03373A43114FB8420ED0104FB84274
:102330000BD0B0F1804F08D00E4FB84205D00E4FF1
:10234000B84202D00D4FB84206D14DF6FF77394062
:1023500046F48057394305E047F6FF57394044F4C7
:102360008057394382830184F0BD0000002C014076
:10237000003401400004004000080040000C004010
:102380007FB504460D460121C802FFF737FCADF8C2
:102390000840681E80B2ADF804000020ADF80A00C5
:1023A000ADF806008DF80C0001A90E4800F0C0FA47
:1023B000012211460B4800F028F919208DF8000081
:1023C00000208DF8010003208DF8020001208DF817
:1023D00003006846FFF754FB0121024800F068F84B
:1023E0007FBD0000002C014010B50121174800F00E
:1023F0009BF850B30121154800F057F814480068C5
:10240000401C134908601348006800EB400101EBD1
:10241000C00000F5FA700A2190FBF1F00C49096840
:10242000884205DB4FF400610B48FFF724FA04E013
:102430004FF400610848FFF71CFA05480068B0F542
:10244000FA6F02D100200249086010BD002C014043
:102450003C00002038000020000801404FF0804080
:10246000008A4FF08040008A20F001004FF0804148
:1024700008827047044800880348008820F0010063
:1024800001490880704700001008004021B102880F
:1024900042F08002028004E002884FF67F731A4007
:1024A00002807047CA4302827047CA430282704763
:1024B00021B1028842F00102028004E002884FF656
:1024C000FE731A400280704731B1B0F8442042F4E4
:1024D0000042A0F8442005E0B0F84420C2F30E0208
:1024E000A0F844207047F0B50C4615461E46002162
:1024F000002200230189028B038C4FF6F8773940C4
:1025000021434FF6FC473A4040F201173A434FF659
:10251000DD773B404FF6FF7707EA06172F433B4333
:10252000018102830384F0BD30B502460020002300
:102530000024158A05EA0103958905EA010413B10F
:102540000CB1012000E0002030BD000070B5054650
:102550000C46244885420ED0234885420BD0B5F165
:10256000804F08D02148854205D02148854202D0BD
:102570002048854200D100E000BF208850B923895F
:10258000A28861882846FFF7DBFDE188284600F035
:10259000A2F925E0208804280AD12389A28861882D
:1025A0002846FFF70DFEE188284600F09DF917E068
:1025B000208808280AD12389A28861882846FFF745
:1025C0004BFEE188284600F09CF909E02389A288A7
:1025D00061882846FFF788FEE188284600F09AF9CE
:1025E00070BD0000002C0140003401400004004098
:1025F00000080040000C00400021018041800121C2
:1026000081800021C180018170471AB183890B4309
:10261000838102E083898B438381704770B50024F6
:1026200000220023058C4FF6FE7635400584028C8F
:102630008388048B4FF68F752C40B51E2C400D8877
:102640002C43751E2A400D892A434D882A43144D78
:10265000A8420BD0134DA84208D0134DA84205D074
:10266000124DA84202D0124DA84213D14FF6F77571
:102670002A404D892A434FF6FB752A408D882A430C
:102680004FF6FF652B404FF6FF552B408D892B43AE
:10269000CD892B4383800483CD888586028470BDD9
:1026A000002C014000340140004001400044014042
:1026B000004801400A460021018B4FF6F77319408C
:1026C000114301837047000070B5002400220023ED
:1026D000058C4FF6EF7635400584028C8388048B99
:1026E00048F6FF752C404FF6FF452C400D884FF6FD
:1026F000FF7606EA05252C434FF6DF752A400D8943
:1027000006EA05152A434D8806EA05152A43154DA4
:10271000A84202D0144DA8421DD14FF67F752A4021
:102720004D894FF6FF7606EA05152A434FF6BF7529
:102730002A408D8806EA05152A434FF6FF352B40BF
:102740004FF2FF752B408D8906EA85052B43CD8915
:1027500006EA85052B4383800483CD8805870284A0
:1027600070BD0000002C0140003401400A460021E9
:10277000018B4FF2FF7319404FF6FF7303EA0223F8
:10278000194301837047000070B500240022002324
:10279000058C4FF6FF6635400584028C8388848B58
:1027A0004FF68F752C404FF6FC752C400D882C434E
:1027B0004FF6FF552A400D894FF6FF7606EA0525AC
:1027C0002A434D8806EA05252A43154DA84202D022
:1027D000144DA8421DD14FF2FF752A404D894FF686
:1027E000FF7606EA05252A434FF6FF352A408D88F5
:1027F00006EA05252A434EF6FF752B404DF6FF7578
:102800002B408D8906EA05152B43CD8906EA05156F
:102810002B4383808483CD888587028470BD00002C
:10282000002C0140003401400A460021818B4FF604
:10283000F7731940114381837047000070B500227F
:1028400000230024058C4EF6FF7635400584038C6A
:102850008488828B48F6FF752A404FF6FF452A4050
:102860000D884FF6FF7606EA05252A434DF6FF75DB
:102870002B400D8906EA05352B434D8806EA0535C0
:102880002B430B4DA84202D00A4DA84208D14BF66B
:10289000FF752C408D894FF6FF7606EA85152C438F
:1028A00084808283CD88A0F84050038470BD0000EE
:1028B000002C0140003401400A460021818B4FF278
:1028C000FF7319404FF6FF7303EA02231943818314
:1028D000704781847047028B4FF6F3731A4002836E
:1028E000028B0A4302837047028B4FF2FF331A4078
:1028F0000283028B4FF6FF7303EA01231A4302831C
:102900007047828B4FF6F3731A408283828B0A439F
:1029100082837047828B4FF2FF331A408283828B0F
:102920004FF6FF7303EA01231A43828370470000C6
:10293000002202881D4B98420ED01D4B98420BD0AE
:10294000B0F1804F08D01B4B984205D01A4B9842EB
:1029500002D01A4B984204D14FF68F731A404B881D
:102960001A43174B984207D0164B984204D04FF6A3
:10297000FF431A40CB881A4302808B8883850B88DB
:1029800003850A4B98420BD0094B984208D00E4B56
:10299000984205D00D4B984202D00D4B984201D180
:1029A0000B7A03860123838270470000002C0140CC
:1029B000003401400004004000080040000C0040CA
:1029C000001000400014004000400140004401405D
:1029D000004801404FF6FF71818000210180C180D5
:1029E000418001727047000010B540F225511D482A
:1029F00000F07CF810B31B4800F034F9C4B21A4858
:102A0000008800F40040C8B91748008800F48040EE
:102A100060B10A2C03D000201349088020E012483E
:102A2000008840F400401049088019E00D2C06D1C0
:102A30000D48008840F480400B49088010E00A48A7
:102A40000088C0F30D0009490C5407480088401C59
:102A50000549088008460088C72801DD0020088055
:102A600010BD000000380140340000207400002038
:102A700010B540F22551084800F038F858B1064822
:102A800000F0F0F8C4B2204600F0A8F940F2255159
:102A9000014800F003F810BD0044004010B50022CA
:102AA000002340F66A14A14200D100BF0A1201249B
:102AB0009440A3B2DC43048010BD21B1828942F46A
:102AC0000052828104E082894DF6FF731A408281B0
:102AD000704702460020B1F5007F00D100BF138887
:102AE0000B400BB1012000E00020704770B502469A
:102AF000002400230025002040F66A16B14200D1D0
:102B000000BFC1F3421501F01F03012606FA03F3CB
:102B1000012D02D19689334006E0022D02D1168A9A
:102B2000334001E0968A33400C12012606FA04F481
:102B30001688344013B10CB1012000E0002070BDB4
:102B4000F0B50346002400260025002040F66A1751
:102B5000B94200D100BF1846C1F3421401F01F066C
:102B6000012707FA06F5012C01D10C3004E0022CF4
:102B700001D1103000E014301AB107682F4307600C
:102B800002E00768AF430760F0BD00002DE9F047A1
:102B900086B005460E460024A24600BFA146002787
:102BA000B08900B100BF2F462C8A4CF6FF7004405C
:102BB000F08804432C82AC894EF6F3100440B088B0
:102BC00031890843718908430443AC81AC8A4FF6CC
:102BD000FF400440B0890443AC8201A8FFF71EF80F
:102BE0001F48874202D1DDF810A001E0DDF80CA0FB
:102BF000A88900F4004040B10AEBCA0000EB0A10BB
:102C000031684900B0FBF1F807E00AEBCA0000EBBD
:102C10000A1031688900B0FBF1F86420B8FBF0F0CD
:102C200004012009642101FB1089A88900F40040F7
:102C300040B1322000EBC900B0FBF1F000F007001A
:102C4000044308E0322000EB09106421B0FBF1F0EE
:102C500000F00F0004432C8106B0BDE8F0870000AF
:102C60000038014001468888C0F308007047C1F36E
:102C7000080282807047000070B504460D460026A9
:102C80000CE000BF80210A48FFF723FF0028F9D09D
:102C900014F8011B0648FFF7EAFF761CAE42F0D39A
:102CA00000BF40210248FFF714FF0028F9D070BD93
:102CB0000044004000BFFEE710B586B00446012185
:102CC0000420FEF79BFF01214804FEF787FF022046
:102CD000ADF8140010208DF8170003208DF81600B1
:102CE00005A92548FEF73AFD02212348FEF7C3FD5A
:102CF0000420ADF8140018208DF8170003208DF87B
:102D0000160005A91C48FEF729FD0820ADF814009F
:102D100004208DF8170005A91748FEF71FFD019440
:102D20000020ADF80800ADF80A00ADF80C00ADF8D1
:102D300010000C20ADF80E0001A91048FFF726FF87
:102D4000012240F225510D48FFF7FAFE01210B4800
:102D5000FFF7B3FE26208DF8000001208DF801005A
:102D600008208DF8020001208DF803006846FEF768
:102D700087FE06B010BD000000080140004400407E
:102D8000014611B96FF0050070470248016000204C
:102D9000FAE70000540000200246062A02D96FF02C
:102DA0000500704704480260044801700020044B8D
:102DB000186000BFF5E70000600000205800002008
:102DC0005C000020014611B96FF005007047024811
:102DD00001600020FAE70000500000202DE9FC41CE
:102DE00080467348006808B9BDE8FC8171480168F5
:102DF0000068401C6F4A10606F4800F801806F48FF
:102E0000006807285AD2DFE800F0055BC2C3045A05
:102E1000C10000BF6848007855280CD0654800689C
:102E2000401E6449086008466349491C0268481E00
:102E3000FDF7ABFAD8E75F4800680B283ED30A21BC
:102E40005D4800F027FB07465B48807AB8420CD00B
:102E500058480068401E5749086008465649491CB2
:102E60000268481EFDF791FABEE753488078524940
:102E7000C97840EA0120ADF800004F4800794E497A
:102E8000497940EA0120ADF802004B4880794A496F
:102E9000C97940EA0120ADF804004748007A464964
:102EA000497A40EA0120ADF80600434948780422F7
:102EB0006946FEF777FB00203E4908606CE000BFE2
:102EC0003C480068022860D93B48407803280CD071
:102ED00038480068401E3749086008463649491C92
:102EE0000268481EFDF751FA7EE733488078401D9E
:102EF00030490968884200D976E72E480068401EAC
:102F00002D49095C2B480068801E2B4A105C41EA61
:102F1000002528480088801E81B2104600F09EFAE5
:102F20000646B5420CD023480068401E214908607F
:102F300008462149491C0268481EFDF726FA53E756
:102F40001D4880784510002414E0042000EB440064
:102F50001949085C032101EB4401174A515C40EA1E
:102F6000012000B2164909682144164A22F81100CE
:102F7000601C84B2AC42E8DB2946114800680C4A68
:102F80001268904700200B49086005E000BF00BFB1
:102F900000200849086000BF00BF06480068B0F57F
:102FA000807F02D100200349086000BF1CE70000B9
:102FB000500000205C0000203C0100206000002048
:102FC000640000203C020020014611B96FF00500AA
:102FD0007047024801600020FAE70000400000202E
:102FE00010B5044612480068042802D16FF00500AD
:102FF00010BD0622002120B2FEF7FBF910B96FF0D8
:103000000500F5E70B48006820B11420094909685C
:10301000884702E06FF00400EAE7A1B21F2000F049
:1030200061F910B16FF00200E2E70020E0E7000074
:10303000600000205400002010B5044617480068C6
:10304000042802D16FF0050010BD40F6FF72012187
:1030500020B2FEF7CEF910B96FF00500F4E74BF29D
:103060008851692000F03EF910B16FF00200EBE7E3
:103070000B48006820B1142009490968884702E01C
:103080006FF00400E0E7A1B2022000F02BF910B1CC
:103090006FF00200D8E70020D6E7000060000020B3
:1030A0005400002010B5044616480068042802D1D8
:1030B0006FF0050010BD0D22012120B2FEF799F935
:1030C00010B96FF00500F5E74BF28851692000F068
:1030D00009F910B16FF00200ECE70B48006820B16D
:1030E000142009490968884702E06FF00400E1E70D
:1030F000A1B2032000F0F6F810B16FF00200D9E79A
:103100000020D7E7600000205400002038B50446B6
:103110000722012120B2FEF76CF910B96FF005000B
:1031200038BD23480068042824D1062C01D0022C85
:103130001DD12048006810B96FF00400F0E7FF20AF
:103140008DF80000AA208DF80100062C03D1632021
:103150008DF8020004E0022C02D164208DF80200F8
:1031600003216846134A126890470020D8E76FF0A1
:103170000500D5E74BF28851692000F0B3F810B193
:103180006FF00200CCE70C48006820B114200A4917
:103190000968884702E06FF00400C1E7A1B204208B
:1031A00000F0A0F810B16FF00200B9E70020B7E717
:1031B00060000020400000205400002008B51C489A
:1031C0000068042815D11B48006810B96FF004008E
:1031D00008BDFF208DF80000AA208DF801006720AF
:1031E0008DF8020003216846124A126890470020B9
:1031F000EEE74BF28851692000F074F810B16FF0DF
:103200000200E5E70C48006820B114200A4909686B
:10321000884702E06FF00400DAE70121084600F079
:1032200061F810B16FF00200D2E70020D0E7000093
:1032300060000020400000205400002010B512481B
:103240000068042802D16FF0050010BD4BF28851D0
:10325000692000F047F810B16FF00200F5E70B4865
:10326000006820B1142009490968884702E06FF01E
:103270000400EAE70721012000F034F810B16FF0F4
:103280000200E2E70020E0E7600000205400002098
:1032900010B512480068042802D16FF0050010BD77
:1032A0004BF28851692000F01DF810B16FF0020058
:1032B000F5E70B48006820B11420094909688847E0
:1032C00002E06FF00400EAE70021012000F00AF8B4
:1032D00010B16FF00200E2E70020E0E7600000209C
:1032E000540000202DE9FC4105460C46902D03D3E7
:1032F0006FF00500BDE8FC8149480068072872D2DC
:10330000DFE800F007234E6B04224D006FF005004C
:10331000F0E74448006810B96FF00400EAE7FF20C6
:103320008DF80000AA208DF80100E8B28DF80200A7
:10333000E0B28DF8030020128DF8040005216846E4
:10334000384A1268904768E000BF3648006810B9F4
:103350006FF00400CEE7344800788DF800000620B6
:103360008DF80100280A8DF80200E8B28DF80300FC
:1033700020128DF80400E0B28DF8050006216846A1
:1033800000F06CF8064630128DF80600F0B28DF8A9
:10339000070008216846234A126890473DE000BFB5
:1033A0002248006810B96FF00400A3E7FF208DF8F1
:1033B0000000AA208DF80100E8B28DF80200E0B20A
:1033C0008DF8030020128DF8040005226946164886
:1033D0000078164B1B6898471FE01548006818B91D
:1033E0006FF0040086E715E0E0B28DF800002012CF
:1033F0008DF80100E9B20C4A12785206100E022331
:103400006A460B4F3F68B847012802D06FF00200B0
:1034100070E702E06FF005006CE700BF002069E78D
:103420006000002040000020580000204C000020D8
:1034300044000020490050EAC12018BF04204A0D72
:1034400018BF40F0010040F2FF72B2EB515F08BFBD
:1034500040F00200012808BF0520704770B5034600
:103460000C46FF25FF26002200BF00BF09E0985C44
:1034700080EA05010548405C80EA06050448465C90
:10348000521CA242F3DB46EA052070BDC83A000890
:10349000C83B000810B502460B460020002103E09F
:1034A000545C0444E0B2491C9942F9D310BD303851
:1034B0000A2801D20120704700207047014600BF52
:1034C000704710B5FEF70CFE00F016F84FF41650DA
:1034D00000F0BAF8002341F61F4219461046FEF7E5
:1034E00007FB48210920FEF74BFFFEF7DBF8FEF74C
:1034F00075FAFEF7C5F910BD10B56FF00400FEF7C0
:10350000D9FD0A4800680A49B0FBF1F00949087082
:103510000846007800EB4001C1EBC0104FF6FF7188
:1035200001EAC0000449088010BD0000040000202A
:1035300000127A002C0000202E0000200146114AC3
:1035400012884A434FF0E0235A6100229A611A46DA
:10355000126942F001021A6100BF4FF0E0221069C7
:1035600000F001021AB100F48032002AF5D04FF0C9
:10357000E022126922F001024FF0E0231A610022DA
:103580009A6170472E00002000BF054A128802F0A1
:103590004002002AF9D0C2B2014B1B1D1A807047AD
:1035A000003801401FB5FFF78CFF2FE00220FEF727
:1035B0009FFB174908600846016816A0FCF716FE35
:1035C0000420FEF795FB124908600846016814A024
:1035D000FCF70CFEFEF76EF91449886800F0A0F8BD
:1035E00004460D461149486800F09AF806460F4611
:1035F0000E49086800F094F8804642460B460CA03D
:10360000CDE90067CDE90245FCF7F0FDCEE700000B
:10361000000000204C656674202564202000000016
:1036200052696768742025640D0A00007403002045
:10363000616E676C653A252E336620252E33662031
:10364000252E33660D0A000010B586B00446012110
:1036500044F20400FEF7D2FA4FF40070ADF8140003
:1036600003208DF8160018208DF8170005A91C48B6
:10367000FEF774F84FF48060ADF8140004208DF864
:10368000170005A91648FEF769F825208DF80000F7
:1036900003208DF801008DF8020001208DF8030051
:1036A0006846FEF7EDF901940020ADF80800ADF88A
:1036B0000A00ADF80C00ADF810000C20ADF80E00BB
:1036C00001A90848FFF762FA012240F22551054896
:1036D000FFF736FA01210348FFF7EFF906B010BDF6
:1036E000000801400038014010B500290AD00878D0
:1036F000002807D005487844FDF77EFA002801D05D
:10370000002010BD0248784410BD0000620800008F
:103710005A0800000808A0F500114FEA310170476F
:1037200043004FEAD30C4FEA3C0C43401FBF400715
:103730000CF1605113F0FE4F70471CF0006F03D185
:1037400000200CF0004170470CF0004343EA507039
:1037500010B540EACC0000F06AF900BF000000920A
:103760004FEA0001FFF7D6BF4FF000414FF00000D5
:10377000A1F50021704700004FF47F0C1CEAD01225
:103780001EBF1CEAD11392EA0C0F93EA0C0F00F053
:10379000858090EA010F48BF42F4807240F4000C2B
:1037A00041F400002CF07F4120F07F4000B58142C1
:1037B000A2EB03020FF2081CACEB504EC0F100006C
:1037C0009EF800E04FEA4E0E00FB0EFC38BF4900A9
:1037D0004FEA2C1C02F5FA020CFB0EF34FEACE1E48
:1037E0004FEA112C4FEAC1210EEB635E42EB2242FD
:1037F0000EFB0CFC4FEA1C5300FB03114FEA112C8B
:103800004FEA01310EFB0CFC4FEADC4C00FB0C11C3
:10381000C14228BF09184CEB03335DF804EB10EBF1
:10382000410143EBC250B2F57C0F38BF704729D538
:1038300012F0F00F1CBF00F1C04000F000407047D4
:10384000008182838485868788898B8C8D8E8F9179
:103850009293959697999A9C9D9FA0A2A3A5A7A89D
:10386000AAACAEB0B2B3B5B7B9BCBEC0C2C5C7C9C9
:10387000CCCED1D4D7D9DCDFE2E6E9ECF0F3F7FA2D
:10388000FE0000004FEA400C0CF1807CBCF17E4F42
:1038900028BF7047B0F1C04000F00FB990EA010FA7
:1038A0000CEAD11348BF42F48072624538BF6345C9
:1038B00007D213F47F0F16D080EA010000F0004019
:1038C000704710B500F0B3F8097EFC3E00F005B873
:1038D00080EA010000F00040704780EA010000F03B
:1038E000004000F0EAB812F47F0F04BF02487047AE
:1038F00080EA010000F0E1B80000C07F10F0004154
:1039000048BF4042B0FA80F310FA03F2C3F19D03BE
:103910000BD051EAC35101EB1220530638BF704758
:1039200000F1010008BF20F0010070474FF47F0C48
:103930001CEAD0121EBF1CEAD11392EA0C0F93EAC4
:103940000C0F00F0478090EA010F48BF42F48072EC
:103950004FF0004C4CEA00204CEA012102EB03023C
:10396000A0FB0113A2F50002002918BF43F00103D8
:103970005B0028BF4FEA330342EB22425FEA132C7D
:103980004CEBC2502EBFBCEB436FB2F57C0F7047BF
:103990004FEA036CBCF1004F08BF20F00100B2F504
:1039A0007C0F38BF70470BD582F0FF0212F5803FC5
:1039B000C8BF704700F1C040D8BF00F0004070475A
:1039C00000F5000C5FEA4C0C48BF7047B0F1C040F6
:1039D00000F073B890EA010F0CEAD11348BF42F42B
:1039E0008072624538BF634504D280EA010000F06E
:1039F0000040704710B500F01AF800BF8900013E82
:103A000000F007B800F009B85FEA410C5FEA1C6CEF
:103A100008D080EA010000F050B85FEA400C5FEA8D
:103A20001C6CF6D14FF00040A0F5800070470EF1FD
:103A3000020E2EF0030E5EF8044B244204D44FEA2B
:103A40004102B2F17F4F11D84FEA4003B3F17F4FEB
:103A50000CD80ED14FEAD07CB2F17F4F0CEB4C0C5E
:103A60000CF1020C08BF4CEBD17C04E04FF0080CC9
:103A700001E04FEAD17C0CEB4C0324FA03F404F090
:103A80000704B4F1040C06D20EEB840CBDE8104020
:103A90004CF0010C6047DFE80CF0070802024FF021
:103AA0000040A0F5800010BD0846420018BFD2F1CA
:103AB000807288BF00F0004010BDFF2141EAD05065
:103AC000C0057047FCF7DABD00C1814001C08041EC
:103AD00001C0804100C1814001C0804100C18140DE
:103AE00000C1814001C0804101C0804100C18140CE
:103AF00000C1814001C0804100C1814001C08041BE
:103B000001C0804100C1814001C0804100C18140AD
:103B100000C1814001C0804100C1814001C080419D
:103B200001C0804100C1814000C1814001C080418D
:103B300001C0804100C1814001C0804100C181407D
:103B400000C1814001C0804101C0804100C181406D
:103B500000C1814001C0804100C1814001C080415D
:103B600001C0804100C1814000C1814001C080414D
:103B700001C0804100C1814001C0804100C181403D
:103B800000C1814001C0804100C1814001C080412D
:103B900001C0804100C1814001C0804100C181401D
:103BA00000C1814001C0804101C0804100C181400D
:103BB00000C1814001C0804100C1814001C08041FD
:103BC00001C0804100C1814000C0C101C30302C2E5
:103BD000C60607C705C5C404CC0C0DCD0FCFCE0E4D
:103BE0000ACACB0BC90908C8D81819D91BDBDA1ABD
:103BF0001EDEDF1FDD1D1CDC14D4D515D71716D62D
:103C0000D21213D311D1D010F03031F133F3F2329C
:103C100036F6F737F53534F43CFCFD3DFF3F3EFE0C
:103C2000FA3A3BFB39F9F83828E8E929EB2B2AEA7C
:103C3000EE2E2FEF2DEDEC2CE42425E527E7E626EC
:103C400022E2E323E12120E0A06061A163A3A2625C
:103C500066A6A767A56564A46CACAD6DAF6F6EAECC
:103C6000AA6A6BAB69A9A86878B8B979BB7B7ABA3C
:103C7000BE7E7FBF7DBDBC7CB47475B577B7B676AC
:103C800072B2B373B17170B050909151935352921C
:103C900096565797559594549C5C5D9D5F9F9E5E8C
:103CA0005A9A9B5B99595898884849894B8B8A4AFC
:103CB0004E8E8F4F8D4D4C8C44848545874746866C
:103CC000824243834181804000000000C012000016
:103CD00080250000004B00000096000000E100007D
:103CE00000C20100008403000008070000100E005D
:103CF00002400000000000A000000000054000009D
:103D0000000000C8000000000C4000000000409CC3
:103D100000000000194000000020BCBE00000000B0
:103D200034400000BFC91B8E00000004B5400000F5
:103D3000504BCFD06607E2CF010000006C4100007D
:103D40003E8251AADFEEA73401000000D9420000F4
:103D5000DCB5A0E23A301F97FFFFFFFFB44500003B
:103D6000FD25A0C8E9A3C14FFFFFFFFFFF3F0000F3
:103D70000000008000000000FF3F00000000008005
:103D8000000000000D0A2A2A2A2A2A2A2A2A2A2A78
:103D90002A2A2A2A2A2A2A2A2A2A2A2A2A2A202097
:103DA000202020202020202048454C50202020206A
:103DB000202020202020202A2A2A2A2A2A2A2A2AA9
:103DC0002A2A2A2A2A2A2A2A2A2A2A2A2A2A2A0D70
:103DD0000A0000002A2A2A2A2A2A2A2A2A2A2A2AE1
:103DE0002A2A2A2A2A2A2A2A2A2A2A2A2A2A2A2A33
:103DF0002A2A2A2A2A2A2A2A2A2A2A2A2A2A2A2A23
:103E00002A2A2A2A2A2A2A2A2A2A2A2A2A2A2A2A12
:103E10002A2A2A2A2A2A2A2A2A2A2A2A2A2A2A2A02
:103E20002A2A0D0A00000000554152542053454EE5
:103E3000443A435C725C6E202020426173696320C7
:103E400072657475726E20636F6E74656E743A205D
:103E5000616363656C65726174696F6E2C20616E5D
:103E600067756C61722076656C6F636974792C205C
:103E7000616E676C652C206D61676E657469632087
:103E80006669656C642E0D0A0000000055415254AD
:103E90002053454E443A6D5C725C6E2020204D618B
:103EA000676E65746963206669656C642063616C24
:103EB0006962726174696F6E2C4166746572206309
:103EC000616C6962726174696F6E2073656E643AC9
:103ED000202020655C725C6E202020746F20696E4B
:103EE0006469636174652074686520656E640D0A99
:103EF000000000000D0A2A2A2A2A2A2A2A2A2A2A07
:103F00002A2A2A2A2A2A2A2A2A2A2A2A2A2A09203C
:103F10005749545F53444B5F44454D4F092A2A2A61
:103F20002A2A2A2A2A2A2A2A2A2A2A2A2A2A2A2AF1
:103F30002A2A2A2A2A000000743F000800000020D4
:103F40007400000028010008E83F00087400002009
:103F5000A4090000440100081C0000004300000008
:103F6000F8FFFFFF0C0000000E0000000F00000033
:103F70002E0000000000000000A24A040000000023
:103F80000000000001020304060708090000000009
:103F900001020304010203040607080902040608DB
:103FA0000000000000000000000000000000000011
:103FB0000000000000000000000000000000000001
:103FC000000000000000000000000000FF000000F2
:103FD00000000000000000000000000000FF0000E2
:083FE0000000000000000000D9
:04000005080000ED02
:00000001FF
